{
	"campaign/campaign.sol": {
		"Campaign": {
			"abi": [
				{
					"inputs": [
						{
							"internalType": "uint256",
							"name": "minimum",
							"type": "uint256"
						},
						{
							"internalType": "address",
							"name": "creator",
							"type": "address"
						}
					],
					"stateMutability": "nonpayable",
					"type": "constructor"
				},
				{
					"inputs": [
						{
							"internalType": "uint256",
							"name": "index",
							"type": "uint256"
						}
					],
					"name": "approveRequest",
					"outputs": [],
					"stateMutability": "nonpayable",
					"type": "function"
				},
				{
					"inputs": [
						{
							"internalType": "address",
							"name": "",
							"type": "address"
						}
					],
					"name": "approvers",
					"outputs": [
						{
							"internalType": "bool",
							"name": "",
							"type": "bool"
						}
					],
					"stateMutability": "view",
					"type": "function"
				},
				{
					"inputs": [],
					"name": "contribute",
					"outputs": [],
					"stateMutability": "payable",
					"type": "function"
				},
				{
					"inputs": [
						{
							"internalType": "string",
							"name": "description",
							"type": "string"
						},
						{
							"internalType": "uint256",
							"name": "value",
							"type": "uint256"
						},
						{
							"internalType": "address payable",
							"name": "recipient",
							"type": "address"
						}
					],
					"name": "createRequest",
					"outputs": [],
					"stateMutability": "nonpayable",
					"type": "function"
				},
				{
					"inputs": [
						{
							"internalType": "uint256",
							"name": "index",
							"type": "uint256"
						}
					],
					"name": "finalizeRequest",
					"outputs": [],
					"stateMutability": "nonpayable",
					"type": "function"
				},
				{
					"inputs": [],
					"name": "manager",
					"outputs": [
						{
							"internalType": "address",
							"name": "",
							"type": "address"
						}
					],
					"stateMutability": "view",
					"type": "function"
				},
				{
					"inputs": [],
					"name": "minimumContribution",
					"outputs": [
						{
							"internalType": "uint256",
							"name": "",
							"type": "uint256"
						}
					],
					"stateMutability": "view",
					"type": "function"
				},
				{
					"inputs": [
						{
							"internalType": "uint256",
							"name": "",
							"type": "uint256"
						}
					],
					"name": "requests",
					"outputs": [
						{
							"internalType": "string",
							"name": "description",
							"type": "string"
						},
						{
							"internalType": "uint256",
							"name": "value",
							"type": "uint256"
						},
						{
							"internalType": "address payable",
							"name": "recipient",
							"type": "address"
						},
						{
							"internalType": "bool",
							"name": "complete",
							"type": "bool"
						},
						{
							"internalType": "uint256",
							"name": "approvalsCount",
							"type": "uint256"
						}
					],
					"stateMutability": "view",
					"type": "function"
				}
			],
			"devdoc": {
				"kind": "dev",
				"methods": {},
				"version": 1
			},
			"evm": {
				"assembly": "    /* \"campaign/campaign.sol\":448:2204  contract Campaign {\r... */\n  mstore(0x40, 0x80)\n    /* \"campaign/campaign.sol\":994:1120  constructor(uint minimum, address creator) public {\r... */\n  callvalue\n  dup1\n  iszero\n  tag_1\n  jumpi\n  0x00\n  dup1\n  revert\ntag_1:\n  pop\n  mload(0x40)\n  sub(codesize, bytecodeSize)\n  dup1\n  bytecodeSize\n  dup4\n  codecopy\n  dup2\n  dup2\n  add\n  0x40\n  mstore\n  dup2\n  add\n  swap1\n  tag_2\n  swap2\n  swap1\n  tag_3\n  jump\t// in\ntag_2:\n    /* \"campaign/campaign.sol\":1065:1072  creator */\n  dup1\n    /* \"campaign/campaign.sol\":1055:1062  manager */\n  0x00\n  dup1\n    /* \"campaign/campaign.sol\":1055:1072  manager = creator */\n  0x0100\n  exp\n  dup2\n  sload\n  dup2\n  0xffffffffffffffffffffffffffffffffffffffff\n  mul\n  not\n  and\n  swap1\n  dup4\n  0xffffffffffffffffffffffffffffffffffffffff\n  and\n  mul\n  or\n  swap1\n  sstore\n  pop\n    /* \"campaign/campaign.sol\":1105:1112  minimum */\n  dup2\n    /* \"campaign/campaign.sol\":1083:1102  minimumContribution */\n  0x03\n    /* \"campaign/campaign.sol\":1083:1112  minimumContribution = minimum */\n  dup2\n  swap1\n  sstore\n  pop\n    /* \"campaign/campaign.sol\":994:1120  constructor(uint minimum, address creator) public {\r... */\n  pop\n  pop\n    /* \"campaign/campaign.sol\":448:2204  contract Campaign {\r... */\n  jump(tag_6)\n    /* \"#utility.yul\":7:150   */\ntag_8:\n    /* \"#utility.yul\":64:69   */\n  0x00\n    /* \"#utility.yul\":95:101   */\n  dup2\n    /* \"#utility.yul\":89:102   */\n  mload\n    /* \"#utility.yul\":80:102   */\n  swap1\n  pop\n    /* \"#utility.yul\":111:144   */\n  tag_10\n    /* \"#utility.yul\":138:143   */\n  dup2\n    /* \"#utility.yul\":111:144   */\n  tag_11\n  jump\t// in\ntag_10:\n    /* \"#utility.yul\":7:150   */\n  swap3\n  swap2\n  pop\n  pop\n  jump\t// out\n    /* \"#utility.yul\":156:299   */\ntag_12:\n    /* \"#utility.yul\":213:218   */\n  0x00\n    /* \"#utility.yul\":244:250   */\n  dup2\n    /* \"#utility.yul\":238:251   */\n  mload\n    /* \"#utility.yul\":229:251   */\n  swap1\n  pop\n    /* \"#utility.yul\":260:293   */\n  tag_14\n    /* \"#utility.yul\":287:292   */\n  dup2\n    /* \"#utility.yul\":260:293   */\n  tag_15\n  jump\t// in\ntag_14:\n    /* \"#utility.yul\":156:299   */\n  swap3\n  swap2\n  pop\n  pop\n  jump\t// out\n    /* \"#utility.yul\":305:812   */\ntag_3:\n    /* \"#utility.yul\":384:390   */\n  0x00\n    /* \"#utility.yul\":392:398   */\n  dup1\n    /* \"#utility.yul\":441:443   */\n  0x40\n    /* \"#utility.yul\":429:438   */\n  dup4\n    /* \"#utility.yul\":420:427   */\n  dup6\n    /* \"#utility.yul\":416:439   */\n  sub\n    /* \"#utility.yul\":412:444   */\n  slt\n    /* \"#utility.yul\":409:528   */\n  iszero\n  tag_17\n  jumpi\n    /* \"#utility.yul\":447:526   */\n  tag_18\n  tag_19\n  jump\t// in\ntag_18:\n    /* \"#utility.yul\":409:528   */\ntag_17:\n    /* \"#utility.yul\":567:568   */\n  0x00\n    /* \"#utility.yul\":592:656   */\n  tag_20\n    /* \"#utility.yul\":648:655   */\n  dup6\n    /* \"#utility.yul\":639:645   */\n  dup3\n    /* \"#utility.yul\":628:637   */\n  dup7\n    /* \"#utility.yul\":624:646   */\n  add\n    /* \"#utility.yul\":592:656   */\n  tag_12\n  jump\t// in\ntag_20:\n    /* \"#utility.yul\":582:656   */\n  swap3\n  pop\n    /* \"#utility.yul\":538:666   */\n  pop\n    /* \"#utility.yul\":705:707   */\n  0x20\n    /* \"#utility.yul\":731:795   */\n  tag_21\n    /* \"#utility.yul\":787:794   */\n  dup6\n    /* \"#utility.yul\":778:784   */\n  dup3\n    /* \"#utility.yul\":767:776   */\n  dup7\n    /* \"#utility.yul\":763:785   */\n  add\n    /* \"#utility.yul\":731:795   */\n  tag_8\n  jump\t// in\ntag_21:\n    /* \"#utility.yul\":721:795   */\n  swap2\n  pop\n    /* \"#utility.yul\":676:805   */\n  pop\n    /* \"#utility.yul\":305:812   */\n  swap3\n  pop\n  swap3\n  swap1\n  pop\n  jump\t// out\n    /* \"#utility.yul\":899:995   */\ntag_24:\n    /* \"#utility.yul\":936:943   */\n  0x00\n    /* \"#utility.yul\":965:989   */\n  tag_26\n    /* \"#utility.yul\":983:988   */\n  dup3\n    /* \"#utility.yul\":965:989   */\n  tag_27\n  jump\t// in\ntag_26:\n    /* \"#utility.yul\":954:989   */\n  swap1\n  pop\n    /* \"#utility.yul\":899:995   */\n  swap2\n  swap1\n  pop\n  jump\t// out\n    /* \"#utility.yul\":1001:1127   */\ntag_27:\n    /* \"#utility.yul\":1038:1045   */\n  0x00\n    /* \"#utility.yul\":1078:1120   */\n  0xffffffffffffffffffffffffffffffffffffffff\n    /* \"#utility.yul\":1071:1076   */\n  dup3\n    /* \"#utility.yul\":1067:1121   */\n  and\n    /* \"#utility.yul\":1056:1121   */\n  swap1\n  pop\n    /* \"#utility.yul\":1001:1127   */\n  swap2\n  swap1\n  pop\n  jump\t// out\n    /* \"#utility.yul\":1133:1210   */\ntag_29:\n    /* \"#utility.yul\":1170:1177   */\n  0x00\n    /* \"#utility.yul\":1199:1204   */\n  dup2\n    /* \"#utility.yul\":1188:1204   */\n  swap1\n  pop\n    /* \"#utility.yul\":1133:1210   */\n  swap2\n  swap1\n  pop\n  jump\t// out\n    /* \"#utility.yul\":1339:1456   */\ntag_19:\n    /* \"#utility.yul\":1448:1449   */\n  0x00\n    /* \"#utility.yul\":1445:1446   */\n  dup1\n    /* \"#utility.yul\":1438:1450   */\n  revert\n    /* \"#utility.yul\":1462:1584   */\ntag_11:\n    /* \"#utility.yul\":1535:1559   */\n  tag_35\n    /* \"#utility.yul\":1553:1558   */\n  dup2\n    /* \"#utility.yul\":1535:1559   */\n  tag_24\n  jump\t// in\ntag_35:\n    /* \"#utility.yul\":1528:1533   */\n  dup2\n    /* \"#utility.yul\":1525:1560   */\n  eq\n    /* \"#utility.yul\":1515:1578   */\n  tag_36\n  jumpi\n    /* \"#utility.yul\":1574:1575   */\n  0x00\n    /* \"#utility.yul\":1571:1572   */\n  dup1\n    /* \"#utility.yul\":1564:1576   */\n  revert\n    /* \"#utility.yul\":1515:1578   */\ntag_36:\n    /* \"#utility.yul\":1462:1584   */\n  pop\n  jump\t// out\n    /* \"#utility.yul\":1590:1712   */\ntag_15:\n    /* \"#utility.yul\":1663:1687   */\n  tag_38\n    /* \"#utility.yul\":1681:1686   */\n  dup2\n    /* \"#utility.yul\":1663:1687   */\n  tag_29\n  jump\t// in\ntag_38:\n    /* \"#utility.yul\":1656:1661   */\n  dup2\n    /* \"#utility.yul\":1653:1688   */\n  eq\n    /* \"#utility.yul\":1643:1706   */\n  tag_39\n  jumpi\n    /* \"#utility.yul\":1702:1703   */\n  0x00\n    /* \"#utility.yul\":1699:1700   */\n  dup1\n    /* \"#utility.yul\":1692:1704   */\n  revert\n    /* \"#utility.yul\":1643:1706   */\ntag_39:\n    /* \"#utility.yul\":1590:1712   */\n  pop\n  jump\t// out\n    /* \"campaign/campaign.sol\":448:2204  contract Campaign {\r... */\ntag_6:\n  dataSize(sub_0)\n  dup1\n  dataOffset(sub_0)\n  0x00\n  codecopy\n  0x00\n  return\nstop\n\nsub_0: assembly {\n        /* \"campaign/campaign.sol\":448:2204  contract Campaign {\r... */\n      mstore(0x40, 0x80)\n      jumpi(tag_1, lt(calldatasize, 0x04))\n      shr(0xe0, calldataload(0x00))\n      dup1\n      0x8a9cfd55\n      gt\n      tag_10\n      jumpi\n      dup1\n      0x8a9cfd55\n      eq\n      tag_6\n      jumpi\n      dup1\n      0x937e09b1\n      eq\n      tag_7\n      jumpi\n      dup1\n      0xd7bb99ba\n      eq\n      tag_8\n      jumpi\n      dup1\n      0xd7d1bbdb\n      eq\n      tag_9\n      jumpi\n      jump(tag_1)\n    tag_10:\n      dup1\n      0x03441006\n      eq\n      tag_2\n      jumpi\n      dup1\n      0x0a144391\n      eq\n      tag_3\n      jumpi\n      dup1\n      0x481c6a75\n      eq\n      tag_4\n      jumpi\n      dup1\n      0x81d12c58\n      eq\n      tag_5\n      jumpi\n    tag_1:\n      0x00\n      dup1\n      revert\n        /* \"campaign/campaign.sol\":1930:2199  function finalizeRequest(uint index) public restricted{\r... */\n    tag_2:\n      callvalue\n      dup1\n      iszero\n      tag_11\n      jumpi\n      0x00\n      dup1\n      revert\n    tag_11:\n      pop\n      tag_12\n      0x04\n      dup1\n      calldatasize\n      sub\n      dup2\n      add\n      swap1\n      tag_13\n      swap2\n      swap1\n      tag_14\n      jump\t// in\n    tag_13:\n      tag_15\n      jump\t// in\n    tag_12:\n      stop\n        /* \"campaign/campaign.sol\":718:759  mapping(address => bool) public approvers */\n    tag_3:\n      callvalue\n      dup1\n      iszero\n      tag_16\n      jumpi\n      0x00\n      dup1\n      revert\n    tag_16:\n      pop\n      tag_17\n      0x04\n      dup1\n      calldatasize\n      sub\n      dup2\n      add\n      swap1\n      tag_18\n      swap2\n      swap1\n      tag_19\n      jump\t// in\n    tag_18:\n      tag_20\n      jump\t// in\n    tag_17:\n      mload(0x40)\n      tag_21\n      swap2\n      swap1\n      tag_22\n      jump\t// in\n    tag_21:\n      mload(0x40)\n      dup1\n      swap2\n      sub\n      swap1\n      return\n        /* \"campaign/campaign.sol\":473:495  address public manager */\n    tag_4:\n      callvalue\n      dup1\n      iszero\n      tag_23\n      jumpi\n      0x00\n      dup1\n      revert\n    tag_23:\n      pop\n      tag_24\n      tag_25\n      jump\t// in\n    tag_24:\n      mload(0x40)\n      tag_26\n      swap2\n      swap1\n      tag_27\n      jump\t// in\n    tag_26:\n      mload(0x40)\n      dup1\n      swap2\n      sub\n      swap1\n      return\n        /* \"campaign/campaign.sol\":853:894  mapping (uint => Request) public requests */\n    tag_5:\n      callvalue\n      dup1\n      iszero\n      tag_28\n      jumpi\n      0x00\n      dup1\n      revert\n    tag_28:\n      pop\n      tag_29\n      0x04\n      dup1\n      calldatasize\n      sub\n      dup2\n      add\n      swap1\n      tag_30\n      swap2\n      swap1\n      tag_14\n      jump\t// in\n    tag_30:\n      tag_31\n      jump\t// in\n    tag_29:\n      mload(0x40)\n      tag_32\n      swap6\n      swap5\n      swap4\n      swap3\n      swap2\n      swap1\n      tag_33\n      jump\t// in\n    tag_32:\n      mload(0x40)\n      dup1\n      swap2\n      sub\n      swap1\n      return\n        /* \"campaign/campaign.sol\":1300:1646  function createRequest (string memory description, uint value, address payable recipient) public restricted {\r... */\n    tag_6:\n      callvalue\n      dup1\n      iszero\n      tag_34\n      jumpi\n      0x00\n      dup1\n      revert\n    tag_34:\n      pop\n      tag_35\n      0x04\n      dup1\n      calldatasize\n      sub\n      dup2\n      add\n      swap1\n      tag_36\n      swap2\n      swap1\n      tag_37\n      jump\t// in\n    tag_36:\n      tag_38\n      jump\t// in\n    tag_35:\n      stop\n        /* \"campaign/campaign.sol\":792:823  uint public minimumContribution */\n    tag_7:\n      callvalue\n      dup1\n      iszero\n      tag_39\n      jumpi\n      0x00\n      dup1\n      revert\n    tag_39:\n      pop\n      tag_40\n      tag_41\n      jump\t// in\n    tag_40:\n      mload(0x40)\n      tag_42\n      swap2\n      swap1\n      tag_43\n      jump\t// in\n    tag_42:\n      mload(0x40)\n      dup1\n      swap2\n      sub\n      swap1\n      return\n        /* \"campaign/campaign.sol\":1128:1292  function contribute() public payable {\r... */\n    tag_8:\n      tag_44\n      tag_45\n      jump\t// in\n    tag_44:\n      stop\n        /* \"campaign/campaign.sol\":1654:1922  function approveRequest(uint index) public {\r... */\n    tag_9:\n      callvalue\n      dup1\n      iszero\n      tag_46\n      jumpi\n      0x00\n      dup1\n      revert\n    tag_46:\n      pop\n      tag_47\n      0x04\n      dup1\n      calldatasize\n      sub\n      dup2\n      add\n      swap1\n      tag_48\n      swap2\n      swap1\n      tag_14\n      jump\t// in\n    tag_48:\n      tag_49\n      jump\t// in\n    tag_47:\n      stop\n        /* \"campaign/campaign.sol\":1930:2199  function finalizeRequest(uint index) public restricted{\r... */\n    tag_15:\n        /* \"campaign/campaign.sol\":958:965  manager */\n      0x00\n      dup1\n      sload\n      swap1\n      0x0100\n      exp\n      swap1\n      div\n      0xffffffffffffffffffffffffffffffffffffffff\n      and\n        /* \"campaign/campaign.sol\":944:965  msg.sender == manager */\n      0xffffffffffffffffffffffffffffffffffffffff\n      and\n        /* \"campaign/campaign.sol\":944:954  msg.sender */\n      caller\n        /* \"campaign/campaign.sol\":944:965  msg.sender == manager */\n      0xffffffffffffffffffffffffffffffffffffffff\n      and\n      eq\n        /* \"campaign/campaign.sol\":936:966  require(msg.sender == manager) */\n      tag_51\n      jumpi\n      0x00\n      dup1\n      revert\n    tag_51:\n        /* \"campaign/campaign.sol\":1995:2012  Request storage r */\n      0x00\n        /* \"campaign/campaign.sol\":2015:2023  requests */\n      0x05\n        /* \"campaign/campaign.sol\":2015:2030  requests[index] */\n      0x00\n        /* \"campaign/campaign.sol\":2024:2029  index */\n      dup4\n        /* \"campaign/campaign.sol\":2015:2030  requests[index] */\n      dup2\n      mstore\n      0x20\n      add\n      swap1\n      dup2\n      mstore\n      0x20\n      add\n      0x00\n      keccak256\n        /* \"campaign/campaign.sol\":1995:2030  Request storage r = requests[index] */\n      swap1\n      pop\n        /* \"campaign/campaign.sol\":2050:2051  r */\n      dup1\n        /* \"campaign/campaign.sol\":2050:2060  r.complete */\n      0x02\n      add\n      0x14\n      swap1\n      sload\n      swap1\n      0x0100\n      exp\n      swap1\n      div\n      0xff\n      and\n        /* \"campaign/campaign.sol\":2049:2060  !r.complete */\n      iszero\n        /* \"campaign/campaign.sol\":2041:2061  require(!r.complete) */\n      tag_53\n      jumpi\n      0x00\n      dup1\n      revert\n    tag_53:\n        /* \"campaign/campaign.sol\":2115:2116  2 */\n      0x02\n        /* \"campaign/campaign.sol\":2100:2114  approversCount */\n      dup1\n      sload\n        /* \"campaign/campaign.sol\":2100:2116  approversCount/2 */\n      tag_54\n      swap2\n      swap1\n      tag_55\n      jump\t// in\n    tag_54:\n        /* \"campaign/campaign.sol\":2080:2081  r */\n      dup2\n        /* \"campaign/campaign.sol\":2080:2096  r.approvalsCount */\n      0x03\n      add\n      sload\n        /* \"campaign/campaign.sol\":2080:2117  r.approvalsCount > (approversCount/2) */\n      gt\n        /* \"campaign/campaign.sol\":2072:2118  require(r.approvalsCount > (approversCount/2)) */\n      tag_56\n      jumpi\n      0x00\n      dup1\n      revert\n    tag_56:\n        /* \"campaign/campaign.sol\":2131:2132  r */\n      dup1\n        /* \"campaign/campaign.sol\":2131:2142  r.recipient */\n      0x02\n      add\n      0x00\n      swap1\n      sload\n      swap1\n      0x0100\n      exp\n      swap1\n      div\n      0xffffffffffffffffffffffffffffffffffffffff\n      and\n        /* \"campaign/campaign.sol\":2131:2151  r.recipient.transfer */\n      0xffffffffffffffffffffffffffffffffffffffff\n      and\n        /* \"campaign/campaign.sol\":2131:2160  r.recipient.transfer(r.value) */\n      0x08fc\n        /* \"campaign/campaign.sol\":2152:2153  r */\n      dup3\n        /* \"campaign/campaign.sol\":2152:2159  r.value */\n      0x01\n      add\n      sload\n        /* \"campaign/campaign.sol\":2131:2160  r.recipient.transfer(r.value) */\n      swap1\n      dup2\n      iszero\n      mul\n      swap1\n      mload(0x40)\n      0x00\n      mload(0x40)\n      dup1\n      dup4\n      sub\n      dup2\n      dup6\n      dup9\n      dup9\n      call\n      swap4\n      pop\n      pop\n      pop\n      pop\n      iszero\n      dup1\n      iszero\n      tag_58\n      jumpi\n      returndatasize\n      0x00\n      dup1\n      returndatacopy\n      revert(0x00, returndatasize)\n    tag_58:\n      pop\n        /* \"campaign/campaign.sol\":2185:2189  true */\n      0x01\n        /* \"campaign/campaign.sol\":2172:2173  r */\n      dup2\n        /* \"campaign/campaign.sol\":2172:2182  r.complete */\n      0x02\n      add\n      0x14\n        /* \"campaign/campaign.sol\":2172:2189  r.complete = true */\n      0x0100\n      exp\n      dup2\n      sload\n      dup2\n      0xff\n      mul\n      not\n      and\n      swap1\n      dup4\n      iszero\n      iszero\n      mul\n      or\n      swap1\n      sstore\n      pop\n        /* \"campaign/campaign.sol\":1984:2199  {\r... */\n      pop\n        /* \"campaign/campaign.sol\":1930:2199  function finalizeRequest(uint index) public restricted{\r... */\n      pop\n      jump\t// out\n        /* \"campaign/campaign.sol\":718:759  mapping(address => bool) public approvers */\n    tag_20:\n      mstore(0x20, 0x01)\n      dup1\n      0x00\n      mstore\n      keccak256(0x00, 0x40)\n      0x00\n      swap2\n      pop\n      sload\n      swap1\n      0x0100\n      exp\n      swap1\n      div\n      0xff\n      and\n      dup2\n      jump\t// out\n        /* \"campaign/campaign.sol\":473:495  address public manager */\n    tag_25:\n      0x00\n      dup1\n      sload\n      swap1\n      0x0100\n      exp\n      swap1\n      div\n      0xffffffffffffffffffffffffffffffffffffffff\n      and\n      dup2\n      jump\t// out\n        /* \"campaign/campaign.sol\":853:894  mapping (uint => Request) public requests */\n    tag_31:\n      mstore(0x20, 0x05)\n      dup1\n      0x00\n      mstore\n      keccak256(0x00, 0x40)\n      0x00\n      swap2\n      pop\n      swap1\n      pop\n      dup1\n      0x00\n      add\n      dup1\n      sload\n      tag_59\n      swap1\n      tag_60\n      jump\t// in\n    tag_59:\n      dup1\n      0x1f\n      add\n      0x20\n      dup1\n      swap2\n      div\n      mul\n      0x20\n      add\n      mload(0x40)\n      swap1\n      dup2\n      add\n      0x40\n      mstore\n      dup1\n      swap3\n      swap2\n      swap1\n      dup2\n      dup2\n      mstore\n      0x20\n      add\n      dup3\n      dup1\n      sload\n      tag_61\n      swap1\n      tag_60\n      jump\t// in\n    tag_61:\n      dup1\n      iszero\n      tag_62\n      jumpi\n      dup1\n      0x1f\n      lt\n      tag_63\n      jumpi\n      0x0100\n      dup1\n      dup4\n      sload\n      div\n      mul\n      dup4\n      mstore\n      swap2\n      0x20\n      add\n      swap2\n      jump(tag_62)\n    tag_63:\n      dup3\n      add\n      swap2\n      swap1\n      0x00\n      mstore\n      keccak256(0x00, 0x20)\n      swap1\n    tag_64:\n      dup2\n      sload\n      dup2\n      mstore\n      swap1\n      0x01\n      add\n      swap1\n      0x20\n      add\n      dup1\n      dup4\n      gt\n      tag_64\n      jumpi\n      dup3\n      swap1\n      sub\n      0x1f\n      and\n      dup3\n      add\n      swap2\n    tag_62:\n      pop\n      pop\n      pop\n      pop\n      pop\n      swap1\n      dup1\n      0x01\n      add\n      sload\n      swap1\n      dup1\n      0x02\n      add\n      0x00\n      swap1\n      sload\n      swap1\n      0x0100\n      exp\n      swap1\n      div\n      0xffffffffffffffffffffffffffffffffffffffff\n      and\n      swap1\n      dup1\n      0x02\n      add\n      0x14\n      swap1\n      sload\n      swap1\n      0x0100\n      exp\n      swap1\n      div\n      0xff\n      and\n      swap1\n      dup1\n      0x03\n      add\n      sload\n      swap1\n      pop\n      dup6\n      jump\t// out\n        /* \"campaign/campaign.sol\":1300:1646  function createRequest (string memory description, uint value, address payable recipient) public restricted {\r... */\n    tag_38:\n        /* \"campaign/campaign.sol\":958:965  manager */\n      0x00\n      dup1\n      sload\n      swap1\n      0x0100\n      exp\n      swap1\n      div\n      0xffffffffffffffffffffffffffffffffffffffff\n      and\n        /* \"campaign/campaign.sol\":944:965  msg.sender == manager */\n      0xffffffffffffffffffffffffffffffffffffffff\n      and\n        /* \"campaign/campaign.sol\":944:954  msg.sender */\n      caller\n        /* \"campaign/campaign.sol\":944:965  msg.sender == manager */\n      0xffffffffffffffffffffffffffffffffffffffff\n      and\n      eq\n        /* \"campaign/campaign.sol\":936:966  require(msg.sender == manager) */\n      tag_66\n      jumpi\n      0x00\n      dup1\n      revert\n    tag_66:\n        /* \"campaign/campaign.sol\":1419:1436  Request storage r */\n      0x00\n        /* \"campaign/campaign.sol\":1439:1447  requests */\n      0x05\n        /* \"campaign/campaign.sol\":1439:1462  requests[numRequests++] */\n      0x00\n        /* \"campaign/campaign.sol\":1448:1459  numRequests */\n      0x04\n      0x00\n        /* \"campaign/campaign.sol\":1448:1461  numRequests++ */\n      dup2\n      sload\n      dup1\n      swap3\n      swap2\n      swap1\n      tag_68\n      swap1\n      tag_69\n      jump\t// in\n    tag_68:\n      swap2\n      swap1\n      pop\n      sstore\n        /* \"campaign/campaign.sol\":1439:1462  requests[numRequests++] */\n      dup2\n      mstore\n      0x20\n      add\n      swap1\n      dup2\n      mstore\n      0x20\n      add\n      0x00\n      keccak256\n        /* \"campaign/campaign.sol\":1419:1462  Request storage r = requests[numRequests++] */\n      swap1\n      pop\n        /* \"campaign/campaign.sol\":1492:1503  description */\n      dup4\n        /* \"campaign/campaign.sol\":1477:1478  r */\n      dup2\n        /* \"campaign/campaign.sol\":1477:1490  r.description */\n      0x00\n      add\n        /* \"campaign/campaign.sol\":1477:1503  r.description= description */\n      swap1\n      dup1\n      mload\n      swap1\n      0x20\n      add\n      swap1\n      tag_70\n      swap3\n      swap2\n      swap1\n      tag_71\n      jump\t// in\n    tag_70:\n      pop\n        /* \"campaign/campaign.sol\":1528:1533  value */\n      dup3\n        /* \"campaign/campaign.sol\":1518:1519  r */\n      dup2\n        /* \"campaign/campaign.sol\":1518:1525  r.value */\n      0x01\n      add\n        /* \"campaign/campaign.sol\":1518:1533  r.value = value */\n      dup2\n      swap1\n      sstore\n      pop\n        /* \"campaign/campaign.sol\":1562:1571  recipient */\n      dup2\n        /* \"campaign/campaign.sol\":1548:1549  r */\n      dup2\n        /* \"campaign/campaign.sol\":1548:1559  r.recipient */\n      0x02\n      add\n      0x00\n        /* \"campaign/campaign.sol\":1548:1571  r.recipient = recipient */\n      0x0100\n      exp\n      dup2\n      sload\n      dup2\n      0xffffffffffffffffffffffffffffffffffffffff\n      mul\n      not\n      and\n      swap1\n      dup4\n      0xffffffffffffffffffffffffffffffffffffffff\n      and\n      mul\n      or\n      swap1\n      sstore\n      pop\n        /* \"campaign/campaign.sol\":1599:1604  false */\n      0x00\n        /* \"campaign/campaign.sol\":1586:1587  r */\n      dup2\n        /* \"campaign/campaign.sol\":1586:1596  r.complete */\n      0x02\n      add\n      0x14\n        /* \"campaign/campaign.sol\":1586:1604  r.complete = false */\n      0x0100\n      exp\n      dup2\n      sload\n      dup2\n      0xff\n      mul\n      not\n      and\n      swap1\n      dup4\n      iszero\n      iszero\n      mul\n      or\n      swap1\n      sstore\n      pop\n        /* \"campaign/campaign.sol\":1637:1638  0 */\n      0x00\n        /* \"campaign/campaign.sol\":1619:1620  r */\n      dup2\n        /* \"campaign/campaign.sol\":1619:1635  r.approvalsCount */\n      0x03\n      add\n        /* \"campaign/campaign.sol\":1619:1638  r.approvalsCount= 0 */\n      dup2\n      swap1\n      sstore\n      pop\n        /* \"campaign/campaign.sol\":1408:1646  {\r... */\n      pop\n        /* \"campaign/campaign.sol\":1300:1646  function createRequest (string memory description, uint value, address payable recipient) public restricted {\r... */\n      pop\n      pop\n      pop\n      jump\t// out\n        /* \"campaign/campaign.sol\":792:823  uint public minimumContribution */\n    tag_41:\n      sload(0x03)\n      dup2\n      jump\t// out\n        /* \"campaign/campaign.sol\":1128:1292  function contribute() public payable {\r... */\n    tag_45:\n        /* \"campaign/campaign.sol\":1196:1215  minimumContribution */\n      sload(0x03)\n        /* \"campaign/campaign.sol\":1184:1193  msg.value */\n      callvalue\n        /* \"campaign/campaign.sol\":1184:1215  msg.value > minimumContribution */\n      gt\n        /* \"campaign/campaign.sol\":1176:1216  require(msg.value > minimumContribution) */\n      tag_73\n      jumpi\n      0x00\n      dup1\n      revert\n    tag_73:\n        /* \"campaign/campaign.sol\":1253:1257  true */\n      0x01\n        /* \"campaign/campaign.sol\":1229:1238  approvers */\n      dup1\n        /* \"campaign/campaign.sol\":1229:1250  approvers[msg.sender] */\n      0x00\n        /* \"campaign/campaign.sol\":1239:1249  msg.sender */\n      caller\n        /* \"campaign/campaign.sol\":1229:1250  approvers[msg.sender] */\n      0xffffffffffffffffffffffffffffffffffffffff\n      and\n      0xffffffffffffffffffffffffffffffffffffffff\n      and\n      dup2\n      mstore\n      0x20\n      add\n      swap1\n      dup2\n      mstore\n      0x20\n      add\n      0x00\n      keccak256\n      0x00\n        /* \"campaign/campaign.sol\":1229:1257  approvers[msg.sender] = true */\n      0x0100\n      exp\n      dup2\n      sload\n      dup2\n      0xff\n      mul\n      not\n      and\n      swap1\n      dup4\n      iszero\n      iszero\n      mul\n      or\n      swap1\n      sstore\n      pop\n        /* \"campaign/campaign.sol\":1268:1282  approversCount */\n      0x02\n      0x00\n        /* \"campaign/campaign.sol\":1268:1284  approversCount++ */\n      dup2\n      sload\n      dup1\n      swap3\n      swap2\n      swap1\n      tag_74\n      swap1\n      tag_69\n      jump\t// in\n    tag_74:\n      swap2\n      swap1\n      pop\n      sstore\n      pop\n        /* \"campaign/campaign.sol\":1128:1292  function contribute() public payable {\r... */\n      jump\t// out\n        /* \"campaign/campaign.sol\":1654:1922  function approveRequest(uint index) public {\r... */\n    tag_49:\n        /* \"campaign/campaign.sol\":1708:1725  Request storage r */\n      0x00\n        /* \"campaign/campaign.sol\":1728:1736  requests */\n      0x05\n        /* \"campaign/campaign.sol\":1728:1743  requests[index] */\n      0x00\n        /* \"campaign/campaign.sol\":1737:1742  index */\n      dup4\n        /* \"campaign/campaign.sol\":1728:1743  requests[index] */\n      dup2\n      mstore\n      0x20\n      add\n      swap1\n      dup2\n      mstore\n      0x20\n      add\n      0x00\n      keccak256\n        /* \"campaign/campaign.sol\":1708:1743  Request storage r = requests[index] */\n      swap1\n      pop\n        /* \"campaign/campaign.sol\":1762:1771  approvers */\n      0x01\n        /* \"campaign/campaign.sol\":1762:1783  approvers[msg.sender] */\n      0x00\n        /* \"campaign/campaign.sol\":1772:1782  msg.sender */\n      caller\n        /* \"campaign/campaign.sol\":1762:1783  approvers[msg.sender] */\n      0xffffffffffffffffffffffffffffffffffffffff\n      and\n      0xffffffffffffffffffffffffffffffffffffffff\n      and\n      dup2\n      mstore\n      0x20\n      add\n      swap1\n      dup2\n      mstore\n      0x20\n      add\n      0x00\n      keccak256\n      0x00\n      swap1\n      sload\n      swap1\n      0x0100\n      exp\n      swap1\n      div\n      0xff\n      and\n        /* \"campaign/campaign.sol\":1754:1784  require(approvers[msg.sender]) */\n      tag_76\n      jumpi\n      0x00\n      dup1\n      revert\n    tag_76:\n        /* \"campaign/campaign.sol\":1804:1812  requests */\n      0x05\n        /* \"campaign/campaign.sol\":1804:1819  requests[index] */\n      0x00\n        /* \"campaign/campaign.sol\":1813:1818  index */\n      dup4\n        /* \"campaign/campaign.sol\":1804:1819  requests[index] */\n      dup2\n      mstore\n      0x20\n      add\n      swap1\n      dup2\n      mstore\n      0x20\n      add\n      0x00\n      keccak256\n        /* \"campaign/campaign.sol\":1804:1829  requests[index].approvals */\n      0x04\n      add\n        /* \"campaign/campaign.sol\":1804:1841  requests[index].approvals[msg.sender] */\n      0x00\n        /* \"campaign/campaign.sol\":1830:1840  msg.sender */\n      caller\n        /* \"campaign/campaign.sol\":1804:1841  requests[index].approvals[msg.sender] */\n      0xffffffffffffffffffffffffffffffffffffffff\n      and\n      0xffffffffffffffffffffffffffffffffffffffff\n      and\n      dup2\n      mstore\n      0x20\n      add\n      swap1\n      dup2\n      mstore\n      0x20\n      add\n      0x00\n      keccak256\n      0x00\n      swap1\n      sload\n      swap1\n      0x0100\n      exp\n      swap1\n      div\n      0xff\n      and\n        /* \"campaign/campaign.sol\":1803:1841  !requests[index].approvals[msg.sender] */\n      iszero\n        /* \"campaign/campaign.sol\":1795:1842  require(!requests[index].approvals[msg.sender]) */\n      tag_77\n      jumpi\n      0x00\n      dup1\n      revert\n    tag_77:\n        /* \"campaign/campaign.sol\":1881:1885  true */\n      0x01\n        /* \"campaign/campaign.sol\":1855:1856  r */\n      dup2\n        /* \"campaign/campaign.sol\":1855:1866  r.approvals */\n      0x04\n      add\n        /* \"campaign/campaign.sol\":1855:1878  r.approvals[msg.sender] */\n      0x00\n        /* \"campaign/campaign.sol\":1867:1877  msg.sender */\n      caller\n        /* \"campaign/campaign.sol\":1855:1878  r.approvals[msg.sender] */\n      0xffffffffffffffffffffffffffffffffffffffff\n      and\n      0xffffffffffffffffffffffffffffffffffffffff\n      and\n      dup2\n      mstore\n      0x20\n      add\n      swap1\n      dup2\n      mstore\n      0x20\n      add\n      0x00\n      keccak256\n      0x00\n        /* \"campaign/campaign.sol\":1855:1885  r.approvals[msg.sender] = true */\n      0x0100\n      exp\n      dup2\n      sload\n      dup2\n      0xff\n      mul\n      not\n      and\n      swap1\n      dup4\n      iszero\n      iszero\n      mul\n      or\n      swap1\n      sstore\n      pop\n        /* \"campaign/campaign.sol\":1896:1897  r */\n      dup1\n        /* \"campaign/campaign.sol\":1896:1912  r.approvalsCount */\n      0x03\n      add\n      0x00\n        /* \"campaign/campaign.sol\":1896:1914  r.approvalsCount++ */\n      dup2\n      sload\n      dup1\n      swap3\n      swap2\n      swap1\n      tag_78\n      swap1\n      tag_69\n      jump\t// in\n    tag_78:\n      swap2\n      swap1\n      pop\n      sstore\n      pop\n        /* \"campaign/campaign.sol\":1697:1922  {\r... */\n      pop\n        /* \"campaign/campaign.sol\":1654:1922  function approveRequest(uint index) public {\r... */\n      pop\n      jump\t// out\n    tag_71:\n      dup3\n      dup1\n      sload\n      tag_79\n      swap1\n      tag_60\n      jump\t// in\n    tag_79:\n      swap1\n      0x00\n      mstore\n      keccak256(0x00, 0x20)\n      swap1\n      0x1f\n      add\n      0x20\n      swap1\n      div\n      dup2\n      add\n      swap3\n      dup3\n      tag_81\n      jumpi\n      0x00\n      dup6\n      sstore\n      jump(tag_80)\n    tag_81:\n      dup3\n      0x1f\n      lt\n      tag_82\n      jumpi\n      dup1\n      mload\n      not(0xff)\n      and\n      dup4\n      dup1\n      add\n      or\n      dup6\n      sstore\n      jump(tag_80)\n    tag_82:\n      dup3\n      dup1\n      add\n      0x01\n      add\n      dup6\n      sstore\n      dup3\n      iszero\n      tag_80\n      jumpi\n      swap2\n      dup3\n      add\n    tag_83:\n      dup3\n      dup2\n      gt\n      iszero\n      tag_84\n      jumpi\n      dup3\n      mload\n      dup3\n      sstore\n      swap2\n      0x20\n      add\n      swap2\n      swap1\n      0x01\n      add\n      swap1\n      jump(tag_83)\n    tag_84:\n    tag_80:\n      pop\n      swap1\n      pop\n      tag_85\n      swap2\n      swap1\n      tag_86\n      jump\t// in\n    tag_85:\n      pop\n      swap1\n      jump\t// out\n    tag_86:\n    tag_87:\n      dup1\n      dup3\n      gt\n      iszero\n      tag_88\n      jumpi\n      0x00\n      dup2\n      0x00\n      swap1\n      sstore\n      pop\n      0x01\n      add\n      jump(tag_87)\n    tag_88:\n      pop\n      swap1\n      jump\t// out\n        /* \"#utility.yul\":7:419   */\n    tag_90:\n        /* \"#utility.yul\":85:90   */\n      0x00\n        /* \"#utility.yul\":110:176   */\n      tag_92\n        /* \"#utility.yul\":126:175   */\n      tag_93\n        /* \"#utility.yul\":168:174   */\n      dup5\n        /* \"#utility.yul\":126:175   */\n      tag_94\n      jump\t// in\n    tag_93:\n        /* \"#utility.yul\":110:176   */\n      tag_95\n      jump\t// in\n    tag_92:\n        /* \"#utility.yul\":101:176   */\n      swap1\n      pop\n        /* \"#utility.yul\":199:205   */\n      dup3\n        /* \"#utility.yul\":192:197   */\n      dup2\n        /* \"#utility.yul\":185:206   */\n      mstore\n        /* \"#utility.yul\":237:241   */\n      0x20\n        /* \"#utility.yul\":230:235   */\n      dup2\n        /* \"#utility.yul\":226:242   */\n      add\n        /* \"#utility.yul\":275:278   */\n      dup5\n        /* \"#utility.yul\":266:272   */\n      dup5\n        /* \"#utility.yul\":261:264   */\n      dup5\n        /* \"#utility.yul\":257:273   */\n      add\n        /* \"#utility.yul\":254:279   */\n      gt\n        /* \"#utility.yul\":251:363   */\n      iszero\n      tag_96\n      jumpi\n        /* \"#utility.yul\":282:361   */\n      tag_97\n      tag_98\n      jump\t// in\n    tag_97:\n        /* \"#utility.yul\":251:363   */\n    tag_96:\n        /* \"#utility.yul\":372:413   */\n      tag_99\n        /* \"#utility.yul\":406:412   */\n      dup5\n        /* \"#utility.yul\":401:404   */\n      dup3\n        /* \"#utility.yul\":396:399   */\n      dup6\n        /* \"#utility.yul\":372:413   */\n      tag_100\n      jump\t// in\n    tag_99:\n        /* \"#utility.yul\":91:419   */\n      pop\n        /* \"#utility.yul\":7:419   */\n      swap4\n      swap3\n      pop\n      pop\n      pop\n      jump\t// out\n        /* \"#utility.yul\":425:564   */\n    tag_101:\n        /* \"#utility.yul\":471:476   */\n      0x00\n        /* \"#utility.yul\":509:515   */\n      dup2\n        /* \"#utility.yul\":496:516   */\n      calldataload\n        /* \"#utility.yul\":487:516   */\n      swap1\n      pop\n        /* \"#utility.yul\":525:558   */\n      tag_103\n        /* \"#utility.yul\":552:557   */\n      dup2\n        /* \"#utility.yul\":525:558   */\n      tag_104\n      jump\t// in\n    tag_103:\n        /* \"#utility.yul\":425:564   */\n      swap3\n      swap2\n      pop\n      pop\n      jump\t// out\n        /* \"#utility.yul\":570:725   */\n    tag_105:\n        /* \"#utility.yul\":624:629   */\n      0x00\n        /* \"#utility.yul\":662:668   */\n      dup2\n        /* \"#utility.yul\":649:669   */\n      calldataload\n        /* \"#utility.yul\":640:669   */\n      swap1\n      pop\n        /* \"#utility.yul\":678:719   */\n      tag_107\n        /* \"#utility.yul\":713:718   */\n      dup2\n        /* \"#utility.yul\":678:719   */\n      tag_108\n      jump\t// in\n    tag_107:\n        /* \"#utility.yul\":570:725   */\n      swap3\n      swap2\n      pop\n      pop\n      jump\t// out\n        /* \"#utility.yul\":745:1085   */\n    tag_109:\n        /* \"#utility.yul\":801:806   */\n      0x00\n        /* \"#utility.yul\":850:853   */\n      dup3\n        /* \"#utility.yul\":843:847   */\n      0x1f\n        /* \"#utility.yul\":835:841   */\n      dup4\n        /* \"#utility.yul\":831:848   */\n      add\n        /* \"#utility.yul\":827:854   */\n      slt\n        /* \"#utility.yul\":817:939   */\n      tag_111\n      jumpi\n        /* \"#utility.yul\":858:937   */\n      tag_112\n      tag_113\n      jump\t// in\n    tag_112:\n        /* \"#utility.yul\":817:939   */\n    tag_111:\n        /* \"#utility.yul\":975:981   */\n      dup2\n        /* \"#utility.yul\":962:982   */\n      calldataload\n        /* \"#utility.yul\":1000:1079   */\n      tag_114\n        /* \"#utility.yul\":1075:1078   */\n      dup5\n        /* \"#utility.yul\":1067:1073   */\n      dup3\n        /* \"#utility.yul\":1060:1064   */\n      0x20\n        /* \"#utility.yul\":1052:1058   */\n      dup7\n        /* \"#utility.yul\":1048:1065   */\n      add\n        /* \"#utility.yul\":1000:1079   */\n      tag_90\n      jump\t// in\n    tag_114:\n        /* \"#utility.yul\":991:1079   */\n      swap2\n      pop\n        /* \"#utility.yul\":807:1085   */\n      pop\n        /* \"#utility.yul\":745:1085   */\n      swap3\n      swap2\n      pop\n      pop\n      jump\t// out\n        /* \"#utility.yul\":1091:1230   */\n    tag_115:\n        /* \"#utility.yul\":1137:1142   */\n      0x00\n        /* \"#utility.yul\":1175:1181   */\n      dup2\n        /* \"#utility.yul\":1162:1182   */\n      calldataload\n        /* \"#utility.yul\":1153:1182   */\n      swap1\n      pop\n        /* \"#utility.yul\":1191:1224   */\n      tag_117\n        /* \"#utility.yul\":1218:1223   */\n      dup2\n        /* \"#utility.yul\":1191:1224   */\n      tag_118\n      jump\t// in\n    tag_117:\n        /* \"#utility.yul\":1091:1230   */\n      swap3\n      swap2\n      pop\n      pop\n      jump\t// out\n        /* \"#utility.yul\":1236:1565   */\n    tag_19:\n        /* \"#utility.yul\":1295:1301   */\n      0x00\n        /* \"#utility.yul\":1344:1346   */\n      0x20\n        /* \"#utility.yul\":1332:1341   */\n      dup3\n        /* \"#utility.yul\":1323:1330   */\n      dup5\n        /* \"#utility.yul\":1319:1342   */\n      sub\n        /* \"#utility.yul\":1315:1347   */\n      slt\n        /* \"#utility.yul\":1312:1431   */\n      iszero\n      tag_120\n      jumpi\n        /* \"#utility.yul\":1350:1429   */\n      tag_121\n      tag_122\n      jump\t// in\n    tag_121:\n        /* \"#utility.yul\":1312:1431   */\n    tag_120:\n        /* \"#utility.yul\":1470:1471   */\n      0x00\n        /* \"#utility.yul\":1495:1548   */\n      tag_123\n        /* \"#utility.yul\":1540:1547   */\n      dup5\n        /* \"#utility.yul\":1531:1537   */\n      dup3\n        /* \"#utility.yul\":1520:1529   */\n      dup6\n        /* \"#utility.yul\":1516:1538   */\n      add\n        /* \"#utility.yul\":1495:1548   */\n      tag_101\n      jump\t// in\n    tag_123:\n        /* \"#utility.yul\":1485:1548   */\n      swap2\n      pop\n        /* \"#utility.yul\":1441:1558   */\n      pop\n        /* \"#utility.yul\":1236:1565   */\n      swap3\n      swap2\n      pop\n      pop\n      jump\t// out\n        /* \"#utility.yul\":1571:2386   */\n    tag_37:\n        /* \"#utility.yul\":1666:1672   */\n      0x00\n        /* \"#utility.yul\":1674:1680   */\n      dup1\n        /* \"#utility.yul\":1682:1688   */\n      0x00\n        /* \"#utility.yul\":1731:1733   */\n      0x60\n        /* \"#utility.yul\":1719:1728   */\n      dup5\n        /* \"#utility.yul\":1710:1717   */\n      dup7\n        /* \"#utility.yul\":1706:1729   */\n      sub\n        /* \"#utility.yul\":1702:1734   */\n      slt\n        /* \"#utility.yul\":1699:1818   */\n      iszero\n      tag_125\n      jumpi\n        /* \"#utility.yul\":1737:1816   */\n      tag_126\n      tag_122\n      jump\t// in\n    tag_126:\n        /* \"#utility.yul\":1699:1818   */\n    tag_125:\n        /* \"#utility.yul\":1885:1886   */\n      0x00\n        /* \"#utility.yul\":1874:1883   */\n      dup5\n        /* \"#utility.yul\":1870:1887   */\n      add\n        /* \"#utility.yul\":1857:1888   */\n      calldataload\n        /* \"#utility.yul\":1915:1933   */\n      0xffffffffffffffff\n        /* \"#utility.yul\":1907:1913   */\n      dup2\n        /* \"#utility.yul\":1904:1934   */\n      gt\n        /* \"#utility.yul\":1901:2018   */\n      iszero\n      tag_127\n      jumpi\n        /* \"#utility.yul\":1937:2016   */\n      tag_128\n      tag_129\n      jump\t// in\n    tag_128:\n        /* \"#utility.yul\":1901:2018   */\n    tag_127:\n        /* \"#utility.yul\":2042:2105   */\n      tag_130\n        /* \"#utility.yul\":2097:2104   */\n      dup7\n        /* \"#utility.yul\":2088:2094   */\n      dup3\n        /* \"#utility.yul\":2077:2086   */\n      dup8\n        /* \"#utility.yul\":2073:2095   */\n      add\n        /* \"#utility.yul\":2042:2105   */\n      tag_109\n      jump\t// in\n    tag_130:\n        /* \"#utility.yul\":2032:2105   */\n      swap4\n      pop\n        /* \"#utility.yul\":1828:2115   */\n      pop\n        /* \"#utility.yul\":2154:2156   */\n      0x20\n        /* \"#utility.yul\":2180:2233   */\n      tag_131\n        /* \"#utility.yul\":2225:2232   */\n      dup7\n        /* \"#utility.yul\":2216:2222   */\n      dup3\n        /* \"#utility.yul\":2205:2214   */\n      dup8\n        /* \"#utility.yul\":2201:2223   */\n      add\n        /* \"#utility.yul\":2180:2233   */\n      tag_115\n      jump\t// in\n    tag_131:\n        /* \"#utility.yul\":2170:2233   */\n      swap3\n      pop\n        /* \"#utility.yul\":2125:2243   */\n      pop\n        /* \"#utility.yul\":2282:2284   */\n      0x40\n        /* \"#utility.yul\":2308:2369   */\n      tag_132\n        /* \"#utility.yul\":2361:2368   */\n      dup7\n        /* \"#utility.yul\":2352:2358   */\n      dup3\n        /* \"#utility.yul\":2341:2350   */\n      dup8\n        /* \"#utility.yul\":2337:2359   */\n      add\n        /* \"#utility.yul\":2308:2369   */\n      tag_105\n      jump\t// in\n    tag_132:\n        /* \"#utility.yul\":2298:2369   */\n      swap2\n      pop\n        /* \"#utility.yul\":2253:2379   */\n      pop\n        /* \"#utility.yul\":1571:2386   */\n      swap3\n      pop\n      swap3\n      pop\n      swap3\n      jump\t// out\n        /* \"#utility.yul\":2392:2721   */\n    tag_14:\n        /* \"#utility.yul\":2451:2457   */\n      0x00\n        /* \"#utility.yul\":2500:2502   */\n      0x20\n        /* \"#utility.yul\":2488:2497   */\n      dup3\n        /* \"#utility.yul\":2479:2486   */\n      dup5\n        /* \"#utility.yul\":2475:2498   */\n      sub\n        /* \"#utility.yul\":2471:2503   */\n      slt\n        /* \"#utility.yul\":2468:2587   */\n      iszero\n      tag_134\n      jumpi\n        /* \"#utility.yul\":2506:2585   */\n      tag_135\n      tag_122\n      jump\t// in\n    tag_135:\n        /* \"#utility.yul\":2468:2587   */\n    tag_134:\n        /* \"#utility.yul\":2626:2627   */\n      0x00\n        /* \"#utility.yul\":2651:2704   */\n      tag_136\n        /* \"#utility.yul\":2696:2703   */\n      dup5\n        /* \"#utility.yul\":2687:2693   */\n      dup3\n        /* \"#utility.yul\":2676:2685   */\n      dup6\n        /* \"#utility.yul\":2672:2694   */\n      add\n        /* \"#utility.yul\":2651:2704   */\n      tag_115\n      jump\t// in\n    tag_136:\n        /* \"#utility.yul\":2641:2704   */\n      swap2\n      pop\n        /* \"#utility.yul\":2597:2714   */\n      pop\n        /* \"#utility.yul\":2392:2721   */\n      swap3\n      swap2\n      pop\n      pop\n      jump\t// out\n        /* \"#utility.yul\":2727:2869   */\n    tag_137:\n        /* \"#utility.yul\":2830:2862   */\n      tag_139\n        /* \"#utility.yul\":2856:2861   */\n      dup2\n        /* \"#utility.yul\":2830:2862   */\n      tag_140\n      jump\t// in\n    tag_139:\n        /* \"#utility.yul\":2825:2828   */\n      dup3\n        /* \"#utility.yul\":2818:2863   */\n      mstore\n        /* \"#utility.yul\":2727:2869   */\n      pop\n      pop\n      jump\t// out\n        /* \"#utility.yul\":2875:2993   */\n    tag_141:\n        /* \"#utility.yul\":2962:2986   */\n      tag_143\n        /* \"#utility.yul\":2980:2985   */\n      dup2\n        /* \"#utility.yul\":2962:2986   */\n      tag_144\n      jump\t// in\n    tag_143:\n        /* \"#utility.yul\":2957:2960   */\n      dup3\n        /* \"#utility.yul\":2950:2987   */\n      mstore\n        /* \"#utility.yul\":2875:2993   */\n      pop\n      pop\n      jump\t// out\n        /* \"#utility.yul\":2999:3108   */\n    tag_145:\n        /* \"#utility.yul\":3080:3101   */\n      tag_147\n        /* \"#utility.yul\":3095:3100   */\n      dup2\n        /* \"#utility.yul\":3080:3101   */\n      tag_148\n      jump\t// in\n    tag_147:\n        /* \"#utility.yul\":3075:3078   */\n      dup3\n        /* \"#utility.yul\":3068:3102   */\n      mstore\n        /* \"#utility.yul\":2999:3108   */\n      pop\n      pop\n      jump\t// out\n        /* \"#utility.yul\":3114:3478   */\n    tag_149:\n        /* \"#utility.yul\":3202:3205   */\n      0x00\n        /* \"#utility.yul\":3230:3269   */\n      tag_151\n        /* \"#utility.yul\":3263:3268   */\n      dup3\n        /* \"#utility.yul\":3230:3269   */\n      tag_152\n      jump\t// in\n    tag_151:\n        /* \"#utility.yul\":3285:3356   */\n      tag_153\n        /* \"#utility.yul\":3349:3355   */\n      dup2\n        /* \"#utility.yul\":3344:3347   */\n      dup6\n        /* \"#utility.yul\":3285:3356   */\n      tag_154\n      jump\t// in\n    tag_153:\n        /* \"#utility.yul\":3278:3356   */\n      swap4\n      pop\n        /* \"#utility.yul\":3365:3417   */\n      tag_155\n        /* \"#utility.yul\":3410:3416   */\n      dup2\n        /* \"#utility.yul\":3405:3408   */\n      dup6\n        /* \"#utility.yul\":3398:3402   */\n      0x20\n        /* \"#utility.yul\":3391:3396   */\n      dup7\n        /* \"#utility.yul\":3387:3403   */\n      add\n        /* \"#utility.yul\":3365:3417   */\n      tag_156\n      jump\t// in\n    tag_155:\n        /* \"#utility.yul\":3442:3471   */\n      tag_157\n        /* \"#utility.yul\":3464:3470   */\n      dup2\n        /* \"#utility.yul\":3442:3471   */\n      tag_158\n      jump\t// in\n    tag_157:\n        /* \"#utility.yul\":3437:3440   */\n      dup5\n        /* \"#utility.yul\":3433:3472   */\n      add\n        /* \"#utility.yul\":3426:3472   */\n      swap2\n      pop\n        /* \"#utility.yul\":3206:3478   */\n      pop\n        /* \"#utility.yul\":3114:3478   */\n      swap3\n      swap2\n      pop\n      pop\n      jump\t// out\n        /* \"#utility.yul\":3484:3602   */\n    tag_159:\n        /* \"#utility.yul\":3571:3595   */\n      tag_161\n        /* \"#utility.yul\":3589:3594   */\n      dup2\n        /* \"#utility.yul\":3571:3595   */\n      tag_162\n      jump\t// in\n    tag_161:\n        /* \"#utility.yul\":3566:3569   */\n      dup3\n        /* \"#utility.yul\":3559:3596   */\n      mstore\n        /* \"#utility.yul\":3484:3602   */\n      pop\n      pop\n      jump\t// out\n        /* \"#utility.yul\":3608:3830   */\n    tag_27:\n        /* \"#utility.yul\":3701:3705   */\n      0x00\n        /* \"#utility.yul\":3739:3741   */\n      0x20\n        /* \"#utility.yul\":3728:3737   */\n      dup3\n        /* \"#utility.yul\":3724:3742   */\n      add\n        /* \"#utility.yul\":3716:3742   */\n      swap1\n      pop\n        /* \"#utility.yul\":3752:3823   */\n      tag_164\n        /* \"#utility.yul\":3820:3821   */\n      0x00\n        /* \"#utility.yul\":3809:3818   */\n      dup4\n        /* \"#utility.yul\":3805:3822   */\n      add\n        /* \"#utility.yul\":3796:3802   */\n      dup5\n        /* \"#utility.yul\":3752:3823   */\n      tag_141\n      jump\t// in\n    tag_164:\n        /* \"#utility.yul\":3608:3830   */\n      swap3\n      swap2\n      pop\n      pop\n      jump\t// out\n        /* \"#utility.yul\":3836:4046   */\n    tag_22:\n        /* \"#utility.yul\":3923:3927   */\n      0x00\n        /* \"#utility.yul\":3961:3963   */\n      0x20\n        /* \"#utility.yul\":3950:3959   */\n      dup3\n        /* \"#utility.yul\":3946:3964   */\n      add\n        /* \"#utility.yul\":3938:3964   */\n      swap1\n      pop\n        /* \"#utility.yul\":3974:4039   */\n      tag_166\n        /* \"#utility.yul\":4036:4037   */\n      0x00\n        /* \"#utility.yul\":4025:4034   */\n      dup4\n        /* \"#utility.yul\":4021:4038   */\n      add\n        /* \"#utility.yul\":4012:4018   */\n      dup5\n        /* \"#utility.yul\":3974:4039   */\n      tag_145\n      jump\t// in\n    tag_166:\n        /* \"#utility.yul\":3836:4046   */\n      swap3\n      swap2\n      pop\n      pop\n      jump\t// out\n        /* \"#utility.yul\":4052:4827   */\n    tag_33:\n        /* \"#utility.yul\":4287:4291   */\n      0x00\n        /* \"#utility.yul\":4325:4328   */\n      0xa0\n        /* \"#utility.yul\":4314:4323   */\n      dup3\n        /* \"#utility.yul\":4310:4329   */\n      add\n        /* \"#utility.yul\":4302:4329   */\n      swap1\n      pop\n        /* \"#utility.yul\":4375:4384   */\n      dup2\n        /* \"#utility.yul\":4369:4373   */\n      dup2\n        /* \"#utility.yul\":4365:4385   */\n      sub\n        /* \"#utility.yul\":4361:4362   */\n      0x00\n        /* \"#utility.yul\":4350:4359   */\n      dup4\n        /* \"#utility.yul\":4346:4363   */\n      add\n        /* \"#utility.yul\":4339:4386   */\n      mstore\n        /* \"#utility.yul\":4403:4481   */\n      tag_168\n        /* \"#utility.yul\":4476:4480   */\n      dup2\n        /* \"#utility.yul\":4467:4473   */\n      dup9\n        /* \"#utility.yul\":4403:4481   */\n      tag_149\n      jump\t// in\n    tag_168:\n        /* \"#utility.yul\":4395:4481   */\n      swap1\n      pop\n        /* \"#utility.yul\":4491:4563   */\n      tag_169\n        /* \"#utility.yul\":4559:4561   */\n      0x20\n        /* \"#utility.yul\":4548:4557   */\n      dup4\n        /* \"#utility.yul\":4544:4562   */\n      add\n        /* \"#utility.yul\":4535:4541   */\n      dup8\n        /* \"#utility.yul\":4491:4563   */\n      tag_159\n      jump\t// in\n    tag_169:\n        /* \"#utility.yul\":4573:4661   */\n      tag_170\n        /* \"#utility.yul\":4657:4659   */\n      0x40\n        /* \"#utility.yul\":4646:4655   */\n      dup4\n        /* \"#utility.yul\":4642:4660   */\n      add\n        /* \"#utility.yul\":4633:4639   */\n      dup7\n        /* \"#utility.yul\":4573:4661   */\n      tag_137\n      jump\t// in\n    tag_170:\n        /* \"#utility.yul\":4671:4737   */\n      tag_171\n        /* \"#utility.yul\":4733:4735   */\n      0x60\n        /* \"#utility.yul\":4722:4731   */\n      dup4\n        /* \"#utility.yul\":4718:4736   */\n      add\n        /* \"#utility.yul\":4709:4715   */\n      dup6\n        /* \"#utility.yul\":4671:4737   */\n      tag_145\n      jump\t// in\n    tag_171:\n        /* \"#utility.yul\":4747:4820   */\n      tag_172\n        /* \"#utility.yul\":4815:4818   */\n      0x80\n        /* \"#utility.yul\":4804:4813   */\n      dup4\n        /* \"#utility.yul\":4800:4819   */\n      add\n        /* \"#utility.yul\":4791:4797   */\n      dup5\n        /* \"#utility.yul\":4747:4820   */\n      tag_159\n      jump\t// in\n    tag_172:\n        /* \"#utility.yul\":4052:4827   */\n      swap7\n      swap6\n      pop\n      pop\n      pop\n      pop\n      pop\n      pop\n      jump\t// out\n        /* \"#utility.yul\":4833:5055   */\n    tag_43:\n        /* \"#utility.yul\":4926:4930   */\n      0x00\n        /* \"#utility.yul\":4964:4966   */\n      0x20\n        /* \"#utility.yul\":4953:4962   */\n      dup3\n        /* \"#utility.yul\":4949:4967   */\n      add\n        /* \"#utility.yul\":4941:4967   */\n      swap1\n      pop\n        /* \"#utility.yul\":4977:5048   */\n      tag_174\n        /* \"#utility.yul\":5045:5046   */\n      0x00\n        /* \"#utility.yul\":5034:5043   */\n      dup4\n        /* \"#utility.yul\":5030:5047   */\n      add\n        /* \"#utility.yul\":5021:5027   */\n      dup5\n        /* \"#utility.yul\":4977:5048   */\n      tag_159\n      jump\t// in\n    tag_174:\n        /* \"#utility.yul\":4833:5055   */\n      swap3\n      swap2\n      pop\n      pop\n      jump\t// out\n        /* \"#utility.yul\":5061:5190   */\n    tag_95:\n        /* \"#utility.yul\":5095:5101   */\n      0x00\n        /* \"#utility.yul\":5122:5142   */\n      tag_176\n      tag_177\n      jump\t// in\n    tag_176:\n        /* \"#utility.yul\":5112:5142   */\n      swap1\n      pop\n        /* \"#utility.yul\":5151:5184   */\n      tag_178\n        /* \"#utility.yul\":5179:5183   */\n      dup3\n        /* \"#utility.yul\":5171:5177   */\n      dup3\n        /* \"#utility.yul\":5151:5184   */\n      tag_179\n      jump\t// in\n    tag_178:\n        /* \"#utility.yul\":5061:5190   */\n      swap2\n      swap1\n      pop\n      jump\t// out\n        /* \"#utility.yul\":5196:5271   */\n    tag_177:\n        /* \"#utility.yul\":5229:5235   */\n      0x00\n        /* \"#utility.yul\":5262:5264   */\n      0x40\n        /* \"#utility.yul\":5256:5265   */\n      mload\n        /* \"#utility.yul\":5246:5265   */\n      swap1\n      pop\n        /* \"#utility.yul\":5196:5271   */\n      swap1\n      jump\t// out\n        /* \"#utility.yul\":5277:5585   */\n    tag_94:\n        /* \"#utility.yul\":5339:5343   */\n      0x00\n        /* \"#utility.yul\":5429:5447   */\n      0xffffffffffffffff\n        /* \"#utility.yul\":5421:5427   */\n      dup3\n        /* \"#utility.yul\":5418:5448   */\n      gt\n        /* \"#utility.yul\":5415:5471   */\n      iszero\n      tag_182\n      jumpi\n        /* \"#utility.yul\":5451:5469   */\n      tag_183\n      tag_184\n      jump\t// in\n    tag_183:\n        /* \"#utility.yul\":5415:5471   */\n    tag_182:\n        /* \"#utility.yul\":5489:5518   */\n      tag_185\n        /* \"#utility.yul\":5511:5517   */\n      dup3\n        /* \"#utility.yul\":5489:5518   */\n      tag_158\n      jump\t// in\n    tag_185:\n        /* \"#utility.yul\":5481:5518   */\n      swap1\n      pop\n        /* \"#utility.yul\":5573:5577   */\n      0x20\n        /* \"#utility.yul\":5567:5571   */\n      dup2\n        /* \"#utility.yul\":5563:5578   */\n      add\n        /* \"#utility.yul\":5555:5578   */\n      swap1\n      pop\n        /* \"#utility.yul\":5277:5585   */\n      swap2\n      swap1\n      pop\n      jump\t// out\n        /* \"#utility.yul\":5591:5690   */\n    tag_152:\n        /* \"#utility.yul\":5643:5649   */\n      0x00\n        /* \"#utility.yul\":5677:5682   */\n      dup2\n        /* \"#utility.yul\":5671:5683   */\n      mload\n        /* \"#utility.yul\":5661:5683   */\n      swap1\n      pop\n        /* \"#utility.yul\":5591:5690   */\n      swap2\n      swap1\n      pop\n      jump\t// out\n        /* \"#utility.yul\":5696:5865   */\n    tag_154:\n        /* \"#utility.yul\":5780:5791   */\n      0x00\n        /* \"#utility.yul\":5814:5820   */\n      dup3\n        /* \"#utility.yul\":5809:5812   */\n      dup3\n        /* \"#utility.yul\":5802:5821   */\n      mstore\n        /* \"#utility.yul\":5854:5858   */\n      0x20\n        /* \"#utility.yul\":5849:5852   */\n      dup3\n        /* \"#utility.yul\":5845:5859   */\n      add\n        /* \"#utility.yul\":5830:5859   */\n      swap1\n      pop\n        /* \"#utility.yul\":5696:5865   */\n      swap3\n      swap2\n      pop\n      pop\n      jump\t// out\n        /* \"#utility.yul\":5871:6056   */\n    tag_55:\n        /* \"#utility.yul\":5911:5912   */\n      0x00\n        /* \"#utility.yul\":5928:5948   */\n      tag_189\n        /* \"#utility.yul\":5946:5947   */\n      dup3\n        /* \"#utility.yul\":5928:5948   */\n      tag_162\n      jump\t// in\n    tag_189:\n        /* \"#utility.yul\":5923:5948   */\n      swap2\n      pop\n        /* \"#utility.yul\":5962:5982   */\n      tag_190\n        /* \"#utility.yul\":5980:5981   */\n      dup4\n        /* \"#utility.yul\":5962:5982   */\n      tag_162\n      jump\t// in\n    tag_190:\n        /* \"#utility.yul\":5957:5982   */\n      swap3\n      pop\n        /* \"#utility.yul\":6001:6002   */\n      dup3\n        /* \"#utility.yul\":5991:6026   */\n      tag_191\n      jumpi\n        /* \"#utility.yul\":6006:6024   */\n      tag_192\n      tag_193\n      jump\t// in\n    tag_192:\n        /* \"#utility.yul\":5991:6026   */\n    tag_191:\n        /* \"#utility.yul\":6048:6049   */\n      dup3\n        /* \"#utility.yul\":6045:6046   */\n      dup3\n        /* \"#utility.yul\":6041:6050   */\n      div\n        /* \"#utility.yul\":6036:6050   */\n      swap1\n      pop\n        /* \"#utility.yul\":5871:6056   */\n      swap3\n      swap2\n      pop\n      pop\n      jump\t// out\n        /* \"#utility.yul\":6062:6158   */\n    tag_144:\n        /* \"#utility.yul\":6099:6106   */\n      0x00\n        /* \"#utility.yul\":6128:6152   */\n      tag_195\n        /* \"#utility.yul\":6146:6151   */\n      dup3\n        /* \"#utility.yul\":6128:6152   */\n      tag_196\n      jump\t// in\n    tag_195:\n        /* \"#utility.yul\":6117:6152   */\n      swap1\n      pop\n        /* \"#utility.yul\":6062:6158   */\n      swap2\n      swap1\n      pop\n      jump\t// out\n        /* \"#utility.yul\":6164:6268   */\n    tag_140:\n        /* \"#utility.yul\":6209:6216   */\n      0x00\n        /* \"#utility.yul\":6238:6262   */\n      tag_198\n        /* \"#utility.yul\":6256:6261   */\n      dup3\n        /* \"#utility.yul\":6238:6262   */\n      tag_196\n      jump\t// in\n    tag_198:\n        /* \"#utility.yul\":6227:6262   */\n      swap1\n      pop\n        /* \"#utility.yul\":6164:6268   */\n      swap2\n      swap1\n      pop\n      jump\t// out\n        /* \"#utility.yul\":6274:6364   */\n    tag_148:\n        /* \"#utility.yul\":6308:6315   */\n      0x00\n        /* \"#utility.yul\":6351:6356   */\n      dup2\n        /* \"#utility.yul\":6344:6357   */\n      iszero\n        /* \"#utility.yul\":6337:6358   */\n      iszero\n        /* \"#utility.yul\":6326:6358   */\n      swap1\n      pop\n        /* \"#utility.yul\":6274:6364   */\n      swap2\n      swap1\n      pop\n      jump\t// out\n        /* \"#utility.yul\":6370:6496   */\n    tag_196:\n        /* \"#utility.yul\":6407:6414   */\n      0x00\n        /* \"#utility.yul\":6447:6489   */\n      0xffffffffffffffffffffffffffffffffffffffff\n        /* \"#utility.yul\":6440:6445   */\n      dup3\n        /* \"#utility.yul\":6436:6490   */\n      and\n        /* \"#utility.yul\":6425:6490   */\n      swap1\n      pop\n        /* \"#utility.yul\":6370:6496   */\n      swap2\n      swap1\n      pop\n      jump\t// out\n        /* \"#utility.yul\":6502:6579   */\n    tag_162:\n        /* \"#utility.yul\":6539:6546   */\n      0x00\n        /* \"#utility.yul\":6568:6573   */\n      dup2\n        /* \"#utility.yul\":6557:6573   */\n      swap1\n      pop\n        /* \"#utility.yul\":6502:6579   */\n      swap2\n      swap1\n      pop\n      jump\t// out\n        /* \"#utility.yul\":6585:6739   */\n    tag_100:\n        /* \"#utility.yul\":6669:6675   */\n      dup3\n        /* \"#utility.yul\":6664:6667   */\n      dup2\n        /* \"#utility.yul\":6659:6662   */\n      dup4\n        /* \"#utility.yul\":6646:6676   */\n      calldatacopy\n        /* \"#utility.yul\":6731:6732   */\n      0x00\n        /* \"#utility.yul\":6722:6728   */\n      dup4\n        /* \"#utility.yul\":6717:6720   */\n      dup4\n        /* \"#utility.yul\":6713:6729   */\n      add\n        /* \"#utility.yul\":6706:6733   */\n      mstore\n        /* \"#utility.yul\":6585:6739   */\n      pop\n      pop\n      pop\n      jump\t// out\n        /* \"#utility.yul\":6745:7052   */\n    tag_156:\n        /* \"#utility.yul\":6813:6814   */\n      0x00\n        /* \"#utility.yul\":6823:6936   */\n    tag_204:\n        /* \"#utility.yul\":6837:6843   */\n      dup4\n        /* \"#utility.yul\":6834:6835   */\n      dup2\n        /* \"#utility.yul\":6831:6844   */\n      lt\n        /* \"#utility.yul\":6823:6936   */\n      iszero\n      tag_206\n      jumpi\n        /* \"#utility.yul\":6922:6923   */\n      dup1\n        /* \"#utility.yul\":6917:6920   */\n      dup3\n        /* \"#utility.yul\":6913:6924   */\n      add\n        /* \"#utility.yul\":6907:6925   */\n      mload\n        /* \"#utility.yul\":6903:6904   */\n      dup2\n        /* \"#utility.yul\":6898:6901   */\n      dup5\n        /* \"#utility.yul\":6894:6905   */\n      add\n        /* \"#utility.yul\":6887:6926   */\n      mstore\n        /* \"#utility.yul\":6859:6861   */\n      0x20\n        /* \"#utility.yul\":6856:6857   */\n      dup2\n        /* \"#utility.yul\":6852:6862   */\n      add\n        /* \"#utility.yul\":6847:6862   */\n      swap1\n      pop\n        /* \"#utility.yul\":6823:6936   */\n      jump(tag_204)\n    tag_206:\n        /* \"#utility.yul\":6954:6960   */\n      dup4\n        /* \"#utility.yul\":6951:6952   */\n      dup2\n        /* \"#utility.yul\":6948:6961   */\n      gt\n        /* \"#utility.yul\":6945:7046   */\n      iszero\n      tag_207\n      jumpi\n        /* \"#utility.yul\":7034:7035   */\n      0x00\n        /* \"#utility.yul\":7025:7031   */\n      dup5\n        /* \"#utility.yul\":7020:7023   */\n      dup5\n        /* \"#utility.yul\":7016:7032   */\n      add\n        /* \"#utility.yul\":7009:7036   */\n      mstore\n        /* \"#utility.yul\":6945:7046   */\n    tag_207:\n        /* \"#utility.yul\":6794:7052   */\n      pop\n        /* \"#utility.yul\":6745:7052   */\n      pop\n      pop\n      pop\n      jump\t// out\n        /* \"#utility.yul\":7058:7378   */\n    tag_60:\n        /* \"#utility.yul\":7102:7108   */\n      0x00\n        /* \"#utility.yul\":7139:7140   */\n      0x02\n        /* \"#utility.yul\":7133:7137   */\n      dup3\n        /* \"#utility.yul\":7129:7141   */\n      div\n        /* \"#utility.yul\":7119:7141   */\n      swap1\n      pop\n        /* \"#utility.yul\":7186:7187   */\n      0x01\n        /* \"#utility.yul\":7180:7184   */\n      dup3\n        /* \"#utility.yul\":7176:7188   */\n      and\n        /* \"#utility.yul\":7207:7225   */\n      dup1\n        /* \"#utility.yul\":7197:7278   */\n      tag_209\n      jumpi\n        /* \"#utility.yul\":7263:7267   */\n      0x7f\n        /* \"#utility.yul\":7255:7261   */\n      dup3\n        /* \"#utility.yul\":7251:7268   */\n      and\n        /* \"#utility.yul\":7241:7268   */\n      swap2\n      pop\n        /* \"#utility.yul\":7197:7278   */\n    tag_209:\n        /* \"#utility.yul\":7325:7327   */\n      0x20\n        /* \"#utility.yul\":7317:7323   */\n      dup3\n        /* \"#utility.yul\":7314:7328   */\n      lt\n        /* \"#utility.yul\":7294:7312   */\n      dup2\n        /* \"#utility.yul\":7291:7329   */\n      eq\n        /* \"#utility.yul\":7288:7372   */\n      iszero\n      tag_210\n      jumpi\n        /* \"#utility.yul\":7344:7362   */\n      tag_211\n      tag_212\n      jump\t// in\n    tag_211:\n        /* \"#utility.yul\":7288:7372   */\n    tag_210:\n        /* \"#utility.yul\":7109:7378   */\n      pop\n        /* \"#utility.yul\":7058:7378   */\n      swap2\n      swap1\n      pop\n      jump\t// out\n        /* \"#utility.yul\":7384:7665   */\n    tag_179:\n        /* \"#utility.yul\":7467:7494   */\n      tag_214\n        /* \"#utility.yul\":7489:7493   */\n      dup3\n        /* \"#utility.yul\":7467:7494   */\n      tag_158\n      jump\t// in\n    tag_214:\n        /* \"#utility.yul\":7459:7465   */\n      dup2\n        /* \"#utility.yul\":7455:7495   */\n      add\n        /* \"#utility.yul\":7597:7603   */\n      dup2\n        /* \"#utility.yul\":7585:7595   */\n      dup2\n        /* \"#utility.yul\":7582:7604   */\n      lt\n        /* \"#utility.yul\":7561:7579   */\n      0xffffffffffffffff\n        /* \"#utility.yul\":7549:7559   */\n      dup3\n        /* \"#utility.yul\":7546:7580   */\n      gt\n        /* \"#utility.yul\":7543:7605   */\n      or\n        /* \"#utility.yul\":7540:7628   */\n      iszero\n      tag_215\n      jumpi\n        /* \"#utility.yul\":7608:7626   */\n      tag_216\n      tag_184\n      jump\t// in\n    tag_216:\n        /* \"#utility.yul\":7540:7628   */\n    tag_215:\n        /* \"#utility.yul\":7648:7658   */\n      dup1\n        /* \"#utility.yul\":7644:7646   */\n      0x40\n        /* \"#utility.yul\":7637:7659   */\n      mstore\n        /* \"#utility.yul\":7427:7665   */\n      pop\n        /* \"#utility.yul\":7384:7665   */\n      pop\n      pop\n      jump\t// out\n        /* \"#utility.yul\":7671:7904   */\n    tag_69:\n        /* \"#utility.yul\":7710:7713   */\n      0x00\n        /* \"#utility.yul\":7733:7757   */\n      tag_218\n        /* \"#utility.yul\":7751:7756   */\n      dup3\n        /* \"#utility.yul\":7733:7757   */\n      tag_162\n      jump\t// in\n    tag_218:\n        /* \"#utility.yul\":7724:7757   */\n      swap2\n      pop\n        /* \"#utility.yul\":7779:7845   */\n      0xffffffffffffffffffffffffffffffffffffffffffffffffffffffffffffffff\n        /* \"#utility.yul\":7772:7777   */\n      dup3\n        /* \"#utility.yul\":7769:7846   */\n      eq\n        /* \"#utility.yul\":7766:7869   */\n      iszero\n      tag_219\n      jumpi\n        /* \"#utility.yul\":7849:7867   */\n      tag_220\n      tag_221\n      jump\t// in\n    tag_220:\n        /* \"#utility.yul\":7766:7869   */\n    tag_219:\n        /* \"#utility.yul\":7896:7897   */\n      0x01\n        /* \"#utility.yul\":7889:7894   */\n      dup3\n        /* \"#utility.yul\":7885:7898   */\n      add\n        /* \"#utility.yul\":7878:7898   */\n      swap1\n      pop\n        /* \"#utility.yul\":7671:7904   */\n      swap2\n      swap1\n      pop\n      jump\t// out\n        /* \"#utility.yul\":7910:8090   */\n    tag_221:\n        /* \"#utility.yul\":7958:8035   */\n      0x4e487b7100000000000000000000000000000000000000000000000000000000\n        /* \"#utility.yul\":7955:7956   */\n      0x00\n        /* \"#utility.yul\":7948:8036   */\n      mstore\n        /* \"#utility.yul\":8055:8059   */\n      0x11\n        /* \"#utility.yul\":8052:8053   */\n      0x04\n        /* \"#utility.yul\":8045:8060   */\n      mstore\n        /* \"#utility.yul\":8079:8083   */\n      0x24\n        /* \"#utility.yul\":8076:8077   */\n      0x00\n        /* \"#utility.yul\":8069:8084   */\n      revert\n        /* \"#utility.yul\":8096:8276   */\n    tag_193:\n        /* \"#utility.yul\":8144:8221   */\n      0x4e487b7100000000000000000000000000000000000000000000000000000000\n        /* \"#utility.yul\":8141:8142   */\n      0x00\n        /* \"#utility.yul\":8134:8222   */\n      mstore\n        /* \"#utility.yul\":8241:8245   */\n      0x12\n        /* \"#utility.yul\":8238:8239   */\n      0x04\n        /* \"#utility.yul\":8231:8246   */\n      mstore\n        /* \"#utility.yul\":8265:8269   */\n      0x24\n        /* \"#utility.yul\":8262:8263   */\n      0x00\n        /* \"#utility.yul\":8255:8270   */\n      revert\n        /* \"#utility.yul\":8282:8462   */\n    tag_212:\n        /* \"#utility.yul\":8330:8407   */\n      0x4e487b7100000000000000000000000000000000000000000000000000000000\n        /* \"#utility.yul\":8327:8328   */\n      0x00\n        /* \"#utility.yul\":8320:8408   */\n      mstore\n        /* \"#utility.yul\":8427:8431   */\n      0x22\n        /* \"#utility.yul\":8424:8425   */\n      0x04\n        /* \"#utility.yul\":8417:8432   */\n      mstore\n        /* \"#utility.yul\":8451:8455   */\n      0x24\n        /* \"#utility.yul\":8448:8449   */\n      0x00\n        /* \"#utility.yul\":8441:8456   */\n      revert\n        /* \"#utility.yul\":8468:8648   */\n    tag_184:\n        /* \"#utility.yul\":8516:8593   */\n      0x4e487b7100000000000000000000000000000000000000000000000000000000\n        /* \"#utility.yul\":8513:8514   */\n      0x00\n        /* \"#utility.yul\":8506:8594   */\n      mstore\n        /* \"#utility.yul\":8613:8617   */\n      0x41\n        /* \"#utility.yul\":8610:8611   */\n      0x04\n        /* \"#utility.yul\":8603:8618   */\n      mstore\n        /* \"#utility.yul\":8637:8641   */\n      0x24\n        /* \"#utility.yul\":8634:8635   */\n      0x00\n        /* \"#utility.yul\":8627:8642   */\n      revert\n        /* \"#utility.yul\":8654:8771   */\n    tag_113:\n        /* \"#utility.yul\":8763:8764   */\n      0x00\n        /* \"#utility.yul\":8760:8761   */\n      dup1\n        /* \"#utility.yul\":8753:8765   */\n      revert\n        /* \"#utility.yul\":8777:8894   */\n    tag_98:\n        /* \"#utility.yul\":8886:8887   */\n      0x00\n        /* \"#utility.yul\":8883:8884   */\n      dup1\n        /* \"#utility.yul\":8876:8888   */\n      revert\n        /* \"#utility.yul\":8900:9017   */\n    tag_129:\n        /* \"#utility.yul\":9009:9010   */\n      0x00\n        /* \"#utility.yul\":9006:9007   */\n      dup1\n        /* \"#utility.yul\":8999:9011   */\n      revert\n        /* \"#utility.yul\":9023:9140   */\n    tag_122:\n        /* \"#utility.yul\":9132:9133   */\n      0x00\n        /* \"#utility.yul\":9129:9130   */\n      dup1\n        /* \"#utility.yul\":9122:9134   */\n      revert\n        /* \"#utility.yul\":9146:9248   */\n    tag_158:\n        /* \"#utility.yul\":9187:9193   */\n      0x00\n        /* \"#utility.yul\":9238:9240   */\n      0x1f\n        /* \"#utility.yul\":9234:9241   */\n      not\n        /* \"#utility.yul\":9229:9231   */\n      0x1f\n        /* \"#utility.yul\":9222:9227   */\n      dup4\n        /* \"#utility.yul\":9218:9232   */\n      add\n        /* \"#utility.yul\":9214:9242   */\n      and\n        /* \"#utility.yul\":9204:9242   */\n      swap1\n      pop\n        /* \"#utility.yul\":9146:9248   */\n      swap2\n      swap1\n      pop\n      jump\t// out\n        /* \"#utility.yul\":9254:9376   */\n    tag_104:\n        /* \"#utility.yul\":9327:9351   */\n      tag_232\n        /* \"#utility.yul\":9345:9350   */\n      dup2\n        /* \"#utility.yul\":9327:9351   */\n      tag_144\n      jump\t// in\n    tag_232:\n        /* \"#utility.yul\":9320:9325   */\n      dup2\n        /* \"#utility.yul\":9317:9352   */\n      eq\n        /* \"#utility.yul\":9307:9370   */\n      tag_233\n      jumpi\n        /* \"#utility.yul\":9366:9367   */\n      0x00\n        /* \"#utility.yul\":9363:9364   */\n      dup1\n        /* \"#utility.yul\":9356:9368   */\n      revert\n        /* \"#utility.yul\":9307:9370   */\n    tag_233:\n        /* \"#utility.yul\":9254:9376   */\n      pop\n      jump\t// out\n        /* \"#utility.yul\":9382:9520   */\n    tag_108:\n        /* \"#utility.yul\":9463:9495   */\n      tag_235\n        /* \"#utility.yul\":9489:9494   */\n      dup2\n        /* \"#utility.yul\":9463:9495   */\n      tag_140\n      jump\t// in\n    tag_235:\n        /* \"#utility.yul\":9456:9461   */\n      dup2\n        /* \"#utility.yul\":9453:9496   */\n      eq\n        /* \"#utility.yul\":9443:9514   */\n      tag_236\n      jumpi\n        /* \"#utility.yul\":9510:9511   */\n      0x00\n        /* \"#utility.yul\":9507:9508   */\n      dup1\n        /* \"#utility.yul\":9500:9512   */\n      revert\n        /* \"#utility.yul\":9443:9514   */\n    tag_236:\n        /* \"#utility.yul\":9382:9520   */\n      pop\n      jump\t// out\n        /* \"#utility.yul\":9526:9648   */\n    tag_118:\n        /* \"#utility.yul\":9599:9623   */\n      tag_238\n        /* \"#utility.yul\":9617:9622   */\n      dup2\n        /* \"#utility.yul\":9599:9623   */\n      tag_162\n      jump\t// in\n    tag_238:\n        /* \"#utility.yul\":9592:9597   */\n      dup2\n        /* \"#utility.yul\":9589:9624   */\n      eq\n        /* \"#utility.yul\":9579:9642   */\n      tag_239\n      jumpi\n        /* \"#utility.yul\":9638:9639   */\n      0x00\n        /* \"#utility.yul\":9635:9636   */\n      dup1\n        /* \"#utility.yul\":9628:9640   */\n      revert\n        /* \"#utility.yul\":9579:9642   */\n    tag_239:\n        /* \"#utility.yul\":9526:9648   */\n      pop\n      jump\t// out\n\n    auxdata: 0xa2646970667358221220b85b0c84bdfa360974d35efc1abf91aee975542ec4207e4bccd56ef9e416f77464736f6c63430008070033\n}\n",
				"bytecode": {
					"linkReferences": {},
					"object": "60806040523480156200001157600080fd5b5060405162000f3038038062000f308339818101604052810190620000379190620000b4565b806000806101000a81548173ffffffffffffffffffffffffffffffffffffffff021916908373ffffffffffffffffffffffffffffffffffffffff16021790555081600381905550505062000172565b60008151905062000097816200013e565b92915050565b600081519050620000ae8162000158565b92915050565b60008060408385031215620000ce57620000cd62000139565b5b6000620000de858286016200009d565b9250506020620000f18582860162000086565b9150509250929050565b600062000108826200010f565b9050919050565b600073ffffffffffffffffffffffffffffffffffffffff82169050919050565b6000819050919050565b600080fd5b6200014981620000fb565b81146200015557600080fd5b50565b62000163816200012f565b81146200016f57600080fd5b50565b610dae80620001826000396000f3fe60806040526004361061007b5760003560e01c80638a9cfd551161004e5780638a9cfd5514610152578063937e09b11461017b578063d7bb99ba146101a6578063d7d1bbdb146101b05761007b565b806303441006146100805780630a144391146100a9578063481c6a75146100e657806381d12c5814610111575b600080fd5b34801561008c57600080fd5b506100a760048036038101906100a2919061091a565b6101d9565b005b3480156100b557600080fd5b506100d060048036038101906100cb919061087e565b610311565b6040516100dd91906109d7565b60405180910390f35b3480156100f257600080fd5b506100fb610331565b60405161010891906109bc565b60405180910390f35b34801561011d57600080fd5b506101386004803603810190610133919061091a565b610355565b6040516101499594939291906109f2565b60405180910390f35b34801561015e57600080fd5b50610179600480360381019061017491906108ab565b610440565b005b34801561018757600080fd5b50610190610557565b60405161019d9190610a4c565b60405180910390f35b6101ae61055d565b005b3480156101bc57600080fd5b506101d760048036038101906101d2919061091a565b6105dc565b005b60008054906101000a900473ffffffffffffffffffffffffffffffffffffffff1673ffffffffffffffffffffffffffffffffffffffff163373ffffffffffffffffffffffffffffffffffffffff161461023157600080fd5b60006005600083815260200190815260200160002090508060020160149054906101000a900460ff161561026457600080fd5b600280546102729190610ad9565b81600301541161028157600080fd5b8060020160009054906101000a900473ffffffffffffffffffffffffffffffffffffffff1673ffffffffffffffffffffffffffffffffffffffff166108fc82600101549081150290604051600060405180830381858888f193505050501580156102ef573d6000803e3d6000fd5b5060018160020160146101000a81548160ff0219169083151502179055505050565b60016020528060005260406000206000915054906101000a900460ff1681565b60008054906101000a900473ffffffffffffffffffffffffffffffffffffffff1681565b600560205280600052604060002060009150905080600001805461037890610ba6565b80601f01602080910402602001604051908101604052809291908181526020018280546103a490610ba6565b80156103f15780601f106103c6576101008083540402835291602001916103f1565b820191906000526020600020905b8154815290600101906020018083116103d457829003601f168201915b5050505050908060010154908060020160009054906101000a900473ffffffffffffffffffffffffffffffffffffffff16908060020160149054906101000a900460ff16908060030154905085565b60008054906101000a900473ffffffffffffffffffffffffffffffffffffffff1673ffffffffffffffffffffffffffffffffffffffff163373ffffffffffffffffffffffffffffffffffffffff161461049857600080fd5b600060056000600460008154809291906104b190610c09565b9190505581526020019081526020016000209050838160000190805190602001906104dd92919061072c565b50828160010181905550818160020160006101000a81548173ffffffffffffffffffffffffffffffffffffffff021916908373ffffffffffffffffffffffffffffffffffffffff16021790555060008160020160146101000a81548160ff0219169083151502179055506000816003018190555050505050565b60035481565b600354341161056b57600080fd5b60018060003373ffffffffffffffffffffffffffffffffffffffff1673ffffffffffffffffffffffffffffffffffffffff16815260200190815260200160002060006101000a81548160ff021916908315150217905550600260008154809291906105d590610c09565b9190505550565b6000600560008381526020019081526020016000209050600160003373ffffffffffffffffffffffffffffffffffffffff1673ffffffffffffffffffffffffffffffffffffffff16815260200190815260200160002060009054906101000a900460ff1661064957600080fd5b6005600083815260200190815260200160002060040160003373ffffffffffffffffffffffffffffffffffffffff1673ffffffffffffffffffffffffffffffffffffffff16815260200190815260200160002060009054906101000a900460ff16156106b457600080fd5b60018160040160003373ffffffffffffffffffffffffffffffffffffffff1673ffffffffffffffffffffffffffffffffffffffff16815260200190815260200160002060006101000a81548160ff02191690831515021790555080600301600081548092919061072390610c09565b91905055505050565b82805461073890610ba6565b90600052602060002090601f01602090048101928261075a57600085556107a1565b82601f1061077357805160ff19168380011785556107a1565b828001600101855582156107a1579182015b828111156107a0578251825591602001919060010190610785565b5b5090506107ae91906107b2565b5090565b5b808211156107cb5760008160009055506001016107b3565b5090565b60006107e26107dd84610a8c565b610a67565b9050828152602081018484840111156107fe576107fd610d13565b5b610809848285610b64565b509392505050565b60008135905061082081610d33565b92915050565b60008135905061083581610d4a565b92915050565b600082601f8301126108505761084f610d0e565b5b81356108608482602086016107cf565b91505092915050565b60008135905061087881610d61565b92915050565b60006020828403121561089457610893610d1d565b5b60006108a284828501610811565b91505092915050565b6000806000606084860312156108c4576108c3610d1d565b5b600084013567ffffffffffffffff8111156108e2576108e1610d18565b5b6108ee8682870161083b565b93505060206108ff86828701610869565b925050604061091086828701610826565b9150509250925092565b6000602082840312156109305761092f610d1d565b5b600061093e84828501610869565b91505092915050565b61095081610b1c565b82525050565b61095f81610b0a565b82525050565b61096e81610b2e565b82525050565b600061097f82610abd565b6109898185610ac8565b9350610999818560208601610b73565b6109a281610d22565b840191505092915050565b6109b681610b5a565b82525050565b60006020820190506109d16000830184610956565b92915050565b60006020820190506109ec6000830184610965565b92915050565b600060a0820190508181036000830152610a0c8188610974565b9050610a1b60208301876109ad565b610a286040830186610947565b610a356060830185610965565b610a4260808301846109ad565b9695505050505050565b6000602082019050610a6160008301846109ad565b92915050565b6000610a71610a82565b9050610a7d8282610bd8565b919050565b6000604051905090565b600067ffffffffffffffff821115610aa757610aa6610cdf565b5b610ab082610d22565b9050602081019050919050565b600081519050919050565b600082825260208201905092915050565b6000610ae482610b5a565b9150610aef83610b5a565b925082610aff57610afe610c81565b5b828204905092915050565b6000610b1582610b3a565b9050919050565b6000610b2782610b3a565b9050919050565b60008115159050919050565b600073ffffffffffffffffffffffffffffffffffffffff82169050919050565b6000819050919050565b82818337600083830152505050565b60005b83811015610b91578082015181840152602081019050610b76565b83811115610ba0576000848401525b50505050565b60006002820490506001821680610bbe57607f821691505b60208210811415610bd257610bd1610cb0565b5b50919050565b610be182610d22565b810181811067ffffffffffffffff82111715610c0057610bff610cdf565b5b80604052505050565b6000610c1482610b5a565b91507fffffffffffffffffffffffffffffffffffffffffffffffffffffffffffffffff821415610c4757610c46610c52565b5b600182019050919050565b7f4e487b7100000000000000000000000000000000000000000000000000000000600052601160045260246000fd5b7f4e487b7100000000000000000000000000000000000000000000000000000000600052601260045260246000fd5b7f4e487b7100000000000000000000000000000000000000000000000000000000600052602260045260246000fd5b7f4e487b7100000000000000000000000000000000000000000000000000000000600052604160045260246000fd5b600080fd5b600080fd5b600080fd5b600080fd5b6000601f19601f8301169050919050565b610d3c81610b0a565b8114610d4757600080fd5b50565b610d5381610b1c565b8114610d5e57600080fd5b50565b610d6a81610b5a565b8114610d7557600080fd5b5056fea2646970667358221220b85b0c84bdfa360974d35efc1abf91aee975542ec4207e4bccd56ef9e416f77464736f6c63430008070033",
					"opcodes": "PUSH1 0x80 PUSH1 0x40 MSTORE CALLVALUE DUP1 ISZERO PUSH3 0x11 JUMPI PUSH1 0x0 DUP1 REVERT JUMPDEST POP PUSH1 0x40 MLOAD PUSH3 0xF30 CODESIZE SUB DUP1 PUSH3 0xF30 DUP4 CODECOPY DUP2 DUP2 ADD PUSH1 0x40 MSTORE DUP2 ADD SWAP1 PUSH3 0x37 SWAP2 SWAP1 PUSH3 0xB4 JUMP JUMPDEST DUP1 PUSH1 0x0 DUP1 PUSH2 0x100 EXP DUP2 SLOAD DUP2 PUSH20 0xFFFFFFFFFFFFFFFFFFFFFFFFFFFFFFFFFFFFFFFF MUL NOT AND SWAP1 DUP4 PUSH20 0xFFFFFFFFFFFFFFFFFFFFFFFFFFFFFFFFFFFFFFFF AND MUL OR SWAP1 SSTORE POP DUP2 PUSH1 0x3 DUP2 SWAP1 SSTORE POP POP POP PUSH3 0x172 JUMP JUMPDEST PUSH1 0x0 DUP2 MLOAD SWAP1 POP PUSH3 0x97 DUP2 PUSH3 0x13E JUMP JUMPDEST SWAP3 SWAP2 POP POP JUMP JUMPDEST PUSH1 0x0 DUP2 MLOAD SWAP1 POP PUSH3 0xAE DUP2 PUSH3 0x158 JUMP JUMPDEST SWAP3 SWAP2 POP POP JUMP JUMPDEST PUSH1 0x0 DUP1 PUSH1 0x40 DUP4 DUP6 SUB SLT ISZERO PUSH3 0xCE JUMPI PUSH3 0xCD PUSH3 0x139 JUMP JUMPDEST JUMPDEST PUSH1 0x0 PUSH3 0xDE DUP6 DUP3 DUP7 ADD PUSH3 0x9D JUMP JUMPDEST SWAP3 POP POP PUSH1 0x20 PUSH3 0xF1 DUP6 DUP3 DUP7 ADD PUSH3 0x86 JUMP JUMPDEST SWAP2 POP POP SWAP3 POP SWAP3 SWAP1 POP JUMP JUMPDEST PUSH1 0x0 PUSH3 0x108 DUP3 PUSH3 0x10F JUMP JUMPDEST SWAP1 POP SWAP2 SWAP1 POP JUMP JUMPDEST PUSH1 0x0 PUSH20 0xFFFFFFFFFFFFFFFFFFFFFFFFFFFFFFFFFFFFFFFF DUP3 AND SWAP1 POP SWAP2 SWAP1 POP JUMP JUMPDEST PUSH1 0x0 DUP2 SWAP1 POP SWAP2 SWAP1 POP JUMP JUMPDEST PUSH1 0x0 DUP1 REVERT JUMPDEST PUSH3 0x149 DUP2 PUSH3 0xFB JUMP JUMPDEST DUP2 EQ PUSH3 0x155 JUMPI PUSH1 0x0 DUP1 REVERT JUMPDEST POP JUMP JUMPDEST PUSH3 0x163 DUP2 PUSH3 0x12F JUMP JUMPDEST DUP2 EQ PUSH3 0x16F JUMPI PUSH1 0x0 DUP1 REVERT JUMPDEST POP JUMP JUMPDEST PUSH2 0xDAE DUP1 PUSH3 0x182 PUSH1 0x0 CODECOPY PUSH1 0x0 RETURN INVALID PUSH1 0x80 PUSH1 0x40 MSTORE PUSH1 0x4 CALLDATASIZE LT PUSH2 0x7B JUMPI PUSH1 0x0 CALLDATALOAD PUSH1 0xE0 SHR DUP1 PUSH4 0x8A9CFD55 GT PUSH2 0x4E JUMPI DUP1 PUSH4 0x8A9CFD55 EQ PUSH2 0x152 JUMPI DUP1 PUSH4 0x937E09B1 EQ PUSH2 0x17B JUMPI DUP1 PUSH4 0xD7BB99BA EQ PUSH2 0x1A6 JUMPI DUP1 PUSH4 0xD7D1BBDB EQ PUSH2 0x1B0 JUMPI PUSH2 0x7B JUMP JUMPDEST DUP1 PUSH4 0x3441006 EQ PUSH2 0x80 JUMPI DUP1 PUSH4 0xA144391 EQ PUSH2 0xA9 JUMPI DUP1 PUSH4 0x481C6A75 EQ PUSH2 0xE6 JUMPI DUP1 PUSH4 0x81D12C58 EQ PUSH2 0x111 JUMPI JUMPDEST PUSH1 0x0 DUP1 REVERT JUMPDEST CALLVALUE DUP1 ISZERO PUSH2 0x8C JUMPI PUSH1 0x0 DUP1 REVERT JUMPDEST POP PUSH2 0xA7 PUSH1 0x4 DUP1 CALLDATASIZE SUB DUP2 ADD SWAP1 PUSH2 0xA2 SWAP2 SWAP1 PUSH2 0x91A JUMP JUMPDEST PUSH2 0x1D9 JUMP JUMPDEST STOP JUMPDEST CALLVALUE DUP1 ISZERO PUSH2 0xB5 JUMPI PUSH1 0x0 DUP1 REVERT JUMPDEST POP PUSH2 0xD0 PUSH1 0x4 DUP1 CALLDATASIZE SUB DUP2 ADD SWAP1 PUSH2 0xCB SWAP2 SWAP1 PUSH2 0x87E JUMP JUMPDEST PUSH2 0x311 JUMP JUMPDEST PUSH1 0x40 MLOAD PUSH2 0xDD SWAP2 SWAP1 PUSH2 0x9D7 JUMP JUMPDEST PUSH1 0x40 MLOAD DUP1 SWAP2 SUB SWAP1 RETURN JUMPDEST CALLVALUE DUP1 ISZERO PUSH2 0xF2 JUMPI PUSH1 0x0 DUP1 REVERT JUMPDEST POP PUSH2 0xFB PUSH2 0x331 JUMP JUMPDEST PUSH1 0x40 MLOAD PUSH2 0x108 SWAP2 SWAP1 PUSH2 0x9BC JUMP JUMPDEST PUSH1 0x40 MLOAD DUP1 SWAP2 SUB SWAP1 RETURN JUMPDEST CALLVALUE DUP1 ISZERO PUSH2 0x11D JUMPI PUSH1 0x0 DUP1 REVERT JUMPDEST POP PUSH2 0x138 PUSH1 0x4 DUP1 CALLDATASIZE SUB DUP2 ADD SWAP1 PUSH2 0x133 SWAP2 SWAP1 PUSH2 0x91A JUMP JUMPDEST PUSH2 0x355 JUMP JUMPDEST PUSH1 0x40 MLOAD PUSH2 0x149 SWAP6 SWAP5 SWAP4 SWAP3 SWAP2 SWAP1 PUSH2 0x9F2 JUMP JUMPDEST PUSH1 0x40 MLOAD DUP1 SWAP2 SUB SWAP1 RETURN JUMPDEST CALLVALUE DUP1 ISZERO PUSH2 0x15E JUMPI PUSH1 0x0 DUP1 REVERT JUMPDEST POP PUSH2 0x179 PUSH1 0x4 DUP1 CALLDATASIZE SUB DUP2 ADD SWAP1 PUSH2 0x174 SWAP2 SWAP1 PUSH2 0x8AB JUMP JUMPDEST PUSH2 0x440 JUMP JUMPDEST STOP JUMPDEST CALLVALUE DUP1 ISZERO PUSH2 0x187 JUMPI PUSH1 0x0 DUP1 REVERT JUMPDEST POP PUSH2 0x190 PUSH2 0x557 JUMP JUMPDEST PUSH1 0x40 MLOAD PUSH2 0x19D SWAP2 SWAP1 PUSH2 0xA4C JUMP JUMPDEST PUSH1 0x40 MLOAD DUP1 SWAP2 SUB SWAP1 RETURN JUMPDEST PUSH2 0x1AE PUSH2 0x55D JUMP JUMPDEST STOP JUMPDEST CALLVALUE DUP1 ISZERO PUSH2 0x1BC JUMPI PUSH1 0x0 DUP1 REVERT JUMPDEST POP PUSH2 0x1D7 PUSH1 0x4 DUP1 CALLDATASIZE SUB DUP2 ADD SWAP1 PUSH2 0x1D2 SWAP2 SWAP1 PUSH2 0x91A JUMP JUMPDEST PUSH2 0x5DC JUMP JUMPDEST STOP JUMPDEST PUSH1 0x0 DUP1 SLOAD SWAP1 PUSH2 0x100 EXP SWAP1 DIV PUSH20 0xFFFFFFFFFFFFFFFFFFFFFFFFFFFFFFFFFFFFFFFF AND PUSH20 0xFFFFFFFFFFFFFFFFFFFFFFFFFFFFFFFFFFFFFFFF AND CALLER PUSH20 0xFFFFFFFFFFFFFFFFFFFFFFFFFFFFFFFFFFFFFFFF AND EQ PUSH2 0x231 JUMPI PUSH1 0x0 DUP1 REVERT JUMPDEST PUSH1 0x0 PUSH1 0x5 PUSH1 0x0 DUP4 DUP2 MSTORE PUSH1 0x20 ADD SWAP1 DUP2 MSTORE PUSH1 0x20 ADD PUSH1 0x0 KECCAK256 SWAP1 POP DUP1 PUSH1 0x2 ADD PUSH1 0x14 SWAP1 SLOAD SWAP1 PUSH2 0x100 EXP SWAP1 DIV PUSH1 0xFF AND ISZERO PUSH2 0x264 JUMPI PUSH1 0x0 DUP1 REVERT JUMPDEST PUSH1 0x2 DUP1 SLOAD PUSH2 0x272 SWAP2 SWAP1 PUSH2 0xAD9 JUMP JUMPDEST DUP2 PUSH1 0x3 ADD SLOAD GT PUSH2 0x281 JUMPI PUSH1 0x0 DUP1 REVERT JUMPDEST DUP1 PUSH1 0x2 ADD PUSH1 0x0 SWAP1 SLOAD SWAP1 PUSH2 0x100 EXP SWAP1 DIV PUSH20 0xFFFFFFFFFFFFFFFFFFFFFFFFFFFFFFFFFFFFFFFF AND PUSH20 0xFFFFFFFFFFFFFFFFFFFFFFFFFFFFFFFFFFFFFFFF AND PUSH2 0x8FC DUP3 PUSH1 0x1 ADD SLOAD SWAP1 DUP2 ISZERO MUL SWAP1 PUSH1 0x40 MLOAD PUSH1 0x0 PUSH1 0x40 MLOAD DUP1 DUP4 SUB DUP2 DUP6 DUP9 DUP9 CALL SWAP4 POP POP POP POP ISZERO DUP1 ISZERO PUSH2 0x2EF JUMPI RETURNDATASIZE PUSH1 0x0 DUP1 RETURNDATACOPY RETURNDATASIZE PUSH1 0x0 REVERT JUMPDEST POP PUSH1 0x1 DUP2 PUSH1 0x2 ADD PUSH1 0x14 PUSH2 0x100 EXP DUP2 SLOAD DUP2 PUSH1 0xFF MUL NOT AND SWAP1 DUP4 ISZERO ISZERO MUL OR SWAP1 SSTORE POP POP POP JUMP JUMPDEST PUSH1 0x1 PUSH1 0x20 MSTORE DUP1 PUSH1 0x0 MSTORE PUSH1 0x40 PUSH1 0x0 KECCAK256 PUSH1 0x0 SWAP2 POP SLOAD SWAP1 PUSH2 0x100 EXP SWAP1 DIV PUSH1 0xFF AND DUP2 JUMP JUMPDEST PUSH1 0x0 DUP1 SLOAD SWAP1 PUSH2 0x100 EXP SWAP1 DIV PUSH20 0xFFFFFFFFFFFFFFFFFFFFFFFFFFFFFFFFFFFFFFFF AND DUP2 JUMP JUMPDEST PUSH1 0x5 PUSH1 0x20 MSTORE DUP1 PUSH1 0x0 MSTORE PUSH1 0x40 PUSH1 0x0 KECCAK256 PUSH1 0x0 SWAP2 POP SWAP1 POP DUP1 PUSH1 0x0 ADD DUP1 SLOAD PUSH2 0x378 SWAP1 PUSH2 0xBA6 JUMP JUMPDEST DUP1 PUSH1 0x1F ADD PUSH1 0x20 DUP1 SWAP2 DIV MUL PUSH1 0x20 ADD PUSH1 0x40 MLOAD SWAP1 DUP2 ADD PUSH1 0x40 MSTORE DUP1 SWAP3 SWAP2 SWAP1 DUP2 DUP2 MSTORE PUSH1 0x20 ADD DUP3 DUP1 SLOAD PUSH2 0x3A4 SWAP1 PUSH2 0xBA6 JUMP JUMPDEST DUP1 ISZERO PUSH2 0x3F1 JUMPI DUP1 PUSH1 0x1F LT PUSH2 0x3C6 JUMPI PUSH2 0x100 DUP1 DUP4 SLOAD DIV MUL DUP4 MSTORE SWAP2 PUSH1 0x20 ADD SWAP2 PUSH2 0x3F1 JUMP JUMPDEST DUP3 ADD SWAP2 SWAP1 PUSH1 0x0 MSTORE PUSH1 0x20 PUSH1 0x0 KECCAK256 SWAP1 JUMPDEST DUP2 SLOAD DUP2 MSTORE SWAP1 PUSH1 0x1 ADD SWAP1 PUSH1 0x20 ADD DUP1 DUP4 GT PUSH2 0x3D4 JUMPI DUP3 SWAP1 SUB PUSH1 0x1F AND DUP3 ADD SWAP2 JUMPDEST POP POP POP POP POP SWAP1 DUP1 PUSH1 0x1 ADD SLOAD SWAP1 DUP1 PUSH1 0x2 ADD PUSH1 0x0 SWAP1 SLOAD SWAP1 PUSH2 0x100 EXP SWAP1 DIV PUSH20 0xFFFFFFFFFFFFFFFFFFFFFFFFFFFFFFFFFFFFFFFF AND SWAP1 DUP1 PUSH1 0x2 ADD PUSH1 0x14 SWAP1 SLOAD SWAP1 PUSH2 0x100 EXP SWAP1 DIV PUSH1 0xFF AND SWAP1 DUP1 PUSH1 0x3 ADD SLOAD SWAP1 POP DUP6 JUMP JUMPDEST PUSH1 0x0 DUP1 SLOAD SWAP1 PUSH2 0x100 EXP SWAP1 DIV PUSH20 0xFFFFFFFFFFFFFFFFFFFFFFFFFFFFFFFFFFFFFFFF AND PUSH20 0xFFFFFFFFFFFFFFFFFFFFFFFFFFFFFFFFFFFFFFFF AND CALLER PUSH20 0xFFFFFFFFFFFFFFFFFFFFFFFFFFFFFFFFFFFFFFFF AND EQ PUSH2 0x498 JUMPI PUSH1 0x0 DUP1 REVERT JUMPDEST PUSH1 0x0 PUSH1 0x5 PUSH1 0x0 PUSH1 0x4 PUSH1 0x0 DUP2 SLOAD DUP1 SWAP3 SWAP2 SWAP1 PUSH2 0x4B1 SWAP1 PUSH2 0xC09 JUMP JUMPDEST SWAP2 SWAP1 POP SSTORE DUP2 MSTORE PUSH1 0x20 ADD SWAP1 DUP2 MSTORE PUSH1 0x20 ADD PUSH1 0x0 KECCAK256 SWAP1 POP DUP4 DUP2 PUSH1 0x0 ADD SWAP1 DUP1 MLOAD SWAP1 PUSH1 0x20 ADD SWAP1 PUSH2 0x4DD SWAP3 SWAP2 SWAP1 PUSH2 0x72C JUMP JUMPDEST POP DUP3 DUP2 PUSH1 0x1 ADD DUP2 SWAP1 SSTORE POP DUP2 DUP2 PUSH1 0x2 ADD PUSH1 0x0 PUSH2 0x100 EXP DUP2 SLOAD DUP2 PUSH20 0xFFFFFFFFFFFFFFFFFFFFFFFFFFFFFFFFFFFFFFFF MUL NOT AND SWAP1 DUP4 PUSH20 0xFFFFFFFFFFFFFFFFFFFFFFFFFFFFFFFFFFFFFFFF AND MUL OR SWAP1 SSTORE POP PUSH1 0x0 DUP2 PUSH1 0x2 ADD PUSH1 0x14 PUSH2 0x100 EXP DUP2 SLOAD DUP2 PUSH1 0xFF MUL NOT AND SWAP1 DUP4 ISZERO ISZERO MUL OR SWAP1 SSTORE POP PUSH1 0x0 DUP2 PUSH1 0x3 ADD DUP2 SWAP1 SSTORE POP POP POP POP POP JUMP JUMPDEST PUSH1 0x3 SLOAD DUP2 JUMP JUMPDEST PUSH1 0x3 SLOAD CALLVALUE GT PUSH2 0x56B JUMPI PUSH1 0x0 DUP1 REVERT JUMPDEST PUSH1 0x1 DUP1 PUSH1 0x0 CALLER PUSH20 0xFFFFFFFFFFFFFFFFFFFFFFFFFFFFFFFFFFFFFFFF AND PUSH20 0xFFFFFFFFFFFFFFFFFFFFFFFFFFFFFFFFFFFFFFFF AND DUP2 MSTORE PUSH1 0x20 ADD SWAP1 DUP2 MSTORE PUSH1 0x20 ADD PUSH1 0x0 KECCAK256 PUSH1 0x0 PUSH2 0x100 EXP DUP2 SLOAD DUP2 PUSH1 0xFF MUL NOT AND SWAP1 DUP4 ISZERO ISZERO MUL OR SWAP1 SSTORE POP PUSH1 0x2 PUSH1 0x0 DUP2 SLOAD DUP1 SWAP3 SWAP2 SWAP1 PUSH2 0x5D5 SWAP1 PUSH2 0xC09 JUMP JUMPDEST SWAP2 SWAP1 POP SSTORE POP JUMP JUMPDEST PUSH1 0x0 PUSH1 0x5 PUSH1 0x0 DUP4 DUP2 MSTORE PUSH1 0x20 ADD SWAP1 DUP2 MSTORE PUSH1 0x20 ADD PUSH1 0x0 KECCAK256 SWAP1 POP PUSH1 0x1 PUSH1 0x0 CALLER PUSH20 0xFFFFFFFFFFFFFFFFFFFFFFFFFFFFFFFFFFFFFFFF AND PUSH20 0xFFFFFFFFFFFFFFFFFFFFFFFFFFFFFFFFFFFFFFFF AND DUP2 MSTORE PUSH1 0x20 ADD SWAP1 DUP2 MSTORE PUSH1 0x20 ADD PUSH1 0x0 KECCAK256 PUSH1 0x0 SWAP1 SLOAD SWAP1 PUSH2 0x100 EXP SWAP1 DIV PUSH1 0xFF AND PUSH2 0x649 JUMPI PUSH1 0x0 DUP1 REVERT JUMPDEST PUSH1 0x5 PUSH1 0x0 DUP4 DUP2 MSTORE PUSH1 0x20 ADD SWAP1 DUP2 MSTORE PUSH1 0x20 ADD PUSH1 0x0 KECCAK256 PUSH1 0x4 ADD PUSH1 0x0 CALLER PUSH20 0xFFFFFFFFFFFFFFFFFFFFFFFFFFFFFFFFFFFFFFFF AND PUSH20 0xFFFFFFFFFFFFFFFFFFFFFFFFFFFFFFFFFFFFFFFF AND DUP2 MSTORE PUSH1 0x20 ADD SWAP1 DUP2 MSTORE PUSH1 0x20 ADD PUSH1 0x0 KECCAK256 PUSH1 0x0 SWAP1 SLOAD SWAP1 PUSH2 0x100 EXP SWAP1 DIV PUSH1 0xFF AND ISZERO PUSH2 0x6B4 JUMPI PUSH1 0x0 DUP1 REVERT JUMPDEST PUSH1 0x1 DUP2 PUSH1 0x4 ADD PUSH1 0x0 CALLER PUSH20 0xFFFFFFFFFFFFFFFFFFFFFFFFFFFFFFFFFFFFFFFF AND PUSH20 0xFFFFFFFFFFFFFFFFFFFFFFFFFFFFFFFFFFFFFFFF AND DUP2 MSTORE PUSH1 0x20 ADD SWAP1 DUP2 MSTORE PUSH1 0x20 ADD PUSH1 0x0 KECCAK256 PUSH1 0x0 PUSH2 0x100 EXP DUP2 SLOAD DUP2 PUSH1 0xFF MUL NOT AND SWAP1 DUP4 ISZERO ISZERO MUL OR SWAP1 SSTORE POP DUP1 PUSH1 0x3 ADD PUSH1 0x0 DUP2 SLOAD DUP1 SWAP3 SWAP2 SWAP1 PUSH2 0x723 SWAP1 PUSH2 0xC09 JUMP JUMPDEST SWAP2 SWAP1 POP SSTORE POP POP POP JUMP JUMPDEST DUP3 DUP1 SLOAD PUSH2 0x738 SWAP1 PUSH2 0xBA6 JUMP JUMPDEST SWAP1 PUSH1 0x0 MSTORE PUSH1 0x20 PUSH1 0x0 KECCAK256 SWAP1 PUSH1 0x1F ADD PUSH1 0x20 SWAP1 DIV DUP2 ADD SWAP3 DUP3 PUSH2 0x75A JUMPI PUSH1 0x0 DUP6 SSTORE PUSH2 0x7A1 JUMP JUMPDEST DUP3 PUSH1 0x1F LT PUSH2 0x773 JUMPI DUP1 MLOAD PUSH1 0xFF NOT AND DUP4 DUP1 ADD OR DUP6 SSTORE PUSH2 0x7A1 JUMP JUMPDEST DUP3 DUP1 ADD PUSH1 0x1 ADD DUP6 SSTORE DUP3 ISZERO PUSH2 0x7A1 JUMPI SWAP2 DUP3 ADD JUMPDEST DUP3 DUP2 GT ISZERO PUSH2 0x7A0 JUMPI DUP3 MLOAD DUP3 SSTORE SWAP2 PUSH1 0x20 ADD SWAP2 SWAP1 PUSH1 0x1 ADD SWAP1 PUSH2 0x785 JUMP JUMPDEST JUMPDEST POP SWAP1 POP PUSH2 0x7AE SWAP2 SWAP1 PUSH2 0x7B2 JUMP JUMPDEST POP SWAP1 JUMP JUMPDEST JUMPDEST DUP1 DUP3 GT ISZERO PUSH2 0x7CB JUMPI PUSH1 0x0 DUP2 PUSH1 0x0 SWAP1 SSTORE POP PUSH1 0x1 ADD PUSH2 0x7B3 JUMP JUMPDEST POP SWAP1 JUMP JUMPDEST PUSH1 0x0 PUSH2 0x7E2 PUSH2 0x7DD DUP5 PUSH2 0xA8C JUMP JUMPDEST PUSH2 0xA67 JUMP JUMPDEST SWAP1 POP DUP3 DUP2 MSTORE PUSH1 0x20 DUP2 ADD DUP5 DUP5 DUP5 ADD GT ISZERO PUSH2 0x7FE JUMPI PUSH2 0x7FD PUSH2 0xD13 JUMP JUMPDEST JUMPDEST PUSH2 0x809 DUP5 DUP3 DUP6 PUSH2 0xB64 JUMP JUMPDEST POP SWAP4 SWAP3 POP POP POP JUMP JUMPDEST PUSH1 0x0 DUP2 CALLDATALOAD SWAP1 POP PUSH2 0x820 DUP2 PUSH2 0xD33 JUMP JUMPDEST SWAP3 SWAP2 POP POP JUMP JUMPDEST PUSH1 0x0 DUP2 CALLDATALOAD SWAP1 POP PUSH2 0x835 DUP2 PUSH2 0xD4A JUMP JUMPDEST SWAP3 SWAP2 POP POP JUMP JUMPDEST PUSH1 0x0 DUP3 PUSH1 0x1F DUP4 ADD SLT PUSH2 0x850 JUMPI PUSH2 0x84F PUSH2 0xD0E JUMP JUMPDEST JUMPDEST DUP2 CALLDATALOAD PUSH2 0x860 DUP5 DUP3 PUSH1 0x20 DUP7 ADD PUSH2 0x7CF JUMP JUMPDEST SWAP2 POP POP SWAP3 SWAP2 POP POP JUMP JUMPDEST PUSH1 0x0 DUP2 CALLDATALOAD SWAP1 POP PUSH2 0x878 DUP2 PUSH2 0xD61 JUMP JUMPDEST SWAP3 SWAP2 POP POP JUMP JUMPDEST PUSH1 0x0 PUSH1 0x20 DUP3 DUP5 SUB SLT ISZERO PUSH2 0x894 JUMPI PUSH2 0x893 PUSH2 0xD1D JUMP JUMPDEST JUMPDEST PUSH1 0x0 PUSH2 0x8A2 DUP5 DUP3 DUP6 ADD PUSH2 0x811 JUMP JUMPDEST SWAP2 POP POP SWAP3 SWAP2 POP POP JUMP JUMPDEST PUSH1 0x0 DUP1 PUSH1 0x0 PUSH1 0x60 DUP5 DUP7 SUB SLT ISZERO PUSH2 0x8C4 JUMPI PUSH2 0x8C3 PUSH2 0xD1D JUMP JUMPDEST JUMPDEST PUSH1 0x0 DUP5 ADD CALLDATALOAD PUSH8 0xFFFFFFFFFFFFFFFF DUP2 GT ISZERO PUSH2 0x8E2 JUMPI PUSH2 0x8E1 PUSH2 0xD18 JUMP JUMPDEST JUMPDEST PUSH2 0x8EE DUP7 DUP3 DUP8 ADD PUSH2 0x83B JUMP JUMPDEST SWAP4 POP POP PUSH1 0x20 PUSH2 0x8FF DUP7 DUP3 DUP8 ADD PUSH2 0x869 JUMP JUMPDEST SWAP3 POP POP PUSH1 0x40 PUSH2 0x910 DUP7 DUP3 DUP8 ADD PUSH2 0x826 JUMP JUMPDEST SWAP2 POP POP SWAP3 POP SWAP3 POP SWAP3 JUMP JUMPDEST PUSH1 0x0 PUSH1 0x20 DUP3 DUP5 SUB SLT ISZERO PUSH2 0x930 JUMPI PUSH2 0x92F PUSH2 0xD1D JUMP JUMPDEST JUMPDEST PUSH1 0x0 PUSH2 0x93E DUP5 DUP3 DUP6 ADD PUSH2 0x869 JUMP JUMPDEST SWAP2 POP POP SWAP3 SWAP2 POP POP JUMP JUMPDEST PUSH2 0x950 DUP2 PUSH2 0xB1C JUMP JUMPDEST DUP3 MSTORE POP POP JUMP JUMPDEST PUSH2 0x95F DUP2 PUSH2 0xB0A JUMP JUMPDEST DUP3 MSTORE POP POP JUMP JUMPDEST PUSH2 0x96E DUP2 PUSH2 0xB2E JUMP JUMPDEST DUP3 MSTORE POP POP JUMP JUMPDEST PUSH1 0x0 PUSH2 0x97F DUP3 PUSH2 0xABD JUMP JUMPDEST PUSH2 0x989 DUP2 DUP6 PUSH2 0xAC8 JUMP JUMPDEST SWAP4 POP PUSH2 0x999 DUP2 DUP6 PUSH1 0x20 DUP7 ADD PUSH2 0xB73 JUMP JUMPDEST PUSH2 0x9A2 DUP2 PUSH2 0xD22 JUMP JUMPDEST DUP5 ADD SWAP2 POP POP SWAP3 SWAP2 POP POP JUMP JUMPDEST PUSH2 0x9B6 DUP2 PUSH2 0xB5A JUMP JUMPDEST DUP3 MSTORE POP POP JUMP JUMPDEST PUSH1 0x0 PUSH1 0x20 DUP3 ADD SWAP1 POP PUSH2 0x9D1 PUSH1 0x0 DUP4 ADD DUP5 PUSH2 0x956 JUMP JUMPDEST SWAP3 SWAP2 POP POP JUMP JUMPDEST PUSH1 0x0 PUSH1 0x20 DUP3 ADD SWAP1 POP PUSH2 0x9EC PUSH1 0x0 DUP4 ADD DUP5 PUSH2 0x965 JUMP JUMPDEST SWAP3 SWAP2 POP POP JUMP JUMPDEST PUSH1 0x0 PUSH1 0xA0 DUP3 ADD SWAP1 POP DUP2 DUP2 SUB PUSH1 0x0 DUP4 ADD MSTORE PUSH2 0xA0C DUP2 DUP9 PUSH2 0x974 JUMP JUMPDEST SWAP1 POP PUSH2 0xA1B PUSH1 0x20 DUP4 ADD DUP8 PUSH2 0x9AD JUMP JUMPDEST PUSH2 0xA28 PUSH1 0x40 DUP4 ADD DUP7 PUSH2 0x947 JUMP JUMPDEST PUSH2 0xA35 PUSH1 0x60 DUP4 ADD DUP6 PUSH2 0x965 JUMP JUMPDEST PUSH2 0xA42 PUSH1 0x80 DUP4 ADD DUP5 PUSH2 0x9AD JUMP JUMPDEST SWAP7 SWAP6 POP POP POP POP POP POP JUMP JUMPDEST PUSH1 0x0 PUSH1 0x20 DUP3 ADD SWAP1 POP PUSH2 0xA61 PUSH1 0x0 DUP4 ADD DUP5 PUSH2 0x9AD JUMP JUMPDEST SWAP3 SWAP2 POP POP JUMP JUMPDEST PUSH1 0x0 PUSH2 0xA71 PUSH2 0xA82 JUMP JUMPDEST SWAP1 POP PUSH2 0xA7D DUP3 DUP3 PUSH2 0xBD8 JUMP JUMPDEST SWAP2 SWAP1 POP JUMP JUMPDEST PUSH1 0x0 PUSH1 0x40 MLOAD SWAP1 POP SWAP1 JUMP JUMPDEST PUSH1 0x0 PUSH8 0xFFFFFFFFFFFFFFFF DUP3 GT ISZERO PUSH2 0xAA7 JUMPI PUSH2 0xAA6 PUSH2 0xCDF JUMP JUMPDEST JUMPDEST PUSH2 0xAB0 DUP3 PUSH2 0xD22 JUMP JUMPDEST SWAP1 POP PUSH1 0x20 DUP2 ADD SWAP1 POP SWAP2 SWAP1 POP JUMP JUMPDEST PUSH1 0x0 DUP2 MLOAD SWAP1 POP SWAP2 SWAP1 POP JUMP JUMPDEST PUSH1 0x0 DUP3 DUP3 MSTORE PUSH1 0x20 DUP3 ADD SWAP1 POP SWAP3 SWAP2 POP POP JUMP JUMPDEST PUSH1 0x0 PUSH2 0xAE4 DUP3 PUSH2 0xB5A JUMP JUMPDEST SWAP2 POP PUSH2 0xAEF DUP4 PUSH2 0xB5A JUMP JUMPDEST SWAP3 POP DUP3 PUSH2 0xAFF JUMPI PUSH2 0xAFE PUSH2 0xC81 JUMP JUMPDEST JUMPDEST DUP3 DUP3 DIV SWAP1 POP SWAP3 SWAP2 POP POP JUMP JUMPDEST PUSH1 0x0 PUSH2 0xB15 DUP3 PUSH2 0xB3A JUMP JUMPDEST SWAP1 POP SWAP2 SWAP1 POP JUMP JUMPDEST PUSH1 0x0 PUSH2 0xB27 DUP3 PUSH2 0xB3A JUMP JUMPDEST SWAP1 POP SWAP2 SWAP1 POP JUMP JUMPDEST PUSH1 0x0 DUP2 ISZERO ISZERO SWAP1 POP SWAP2 SWAP1 POP JUMP JUMPDEST PUSH1 0x0 PUSH20 0xFFFFFFFFFFFFFFFFFFFFFFFFFFFFFFFFFFFFFFFF DUP3 AND SWAP1 POP SWAP2 SWAP1 POP JUMP JUMPDEST PUSH1 0x0 DUP2 SWAP1 POP SWAP2 SWAP1 POP JUMP JUMPDEST DUP3 DUP2 DUP4 CALLDATACOPY PUSH1 0x0 DUP4 DUP4 ADD MSTORE POP POP POP JUMP JUMPDEST PUSH1 0x0 JUMPDEST DUP4 DUP2 LT ISZERO PUSH2 0xB91 JUMPI DUP1 DUP3 ADD MLOAD DUP2 DUP5 ADD MSTORE PUSH1 0x20 DUP2 ADD SWAP1 POP PUSH2 0xB76 JUMP JUMPDEST DUP4 DUP2 GT ISZERO PUSH2 0xBA0 JUMPI PUSH1 0x0 DUP5 DUP5 ADD MSTORE JUMPDEST POP POP POP POP JUMP JUMPDEST PUSH1 0x0 PUSH1 0x2 DUP3 DIV SWAP1 POP PUSH1 0x1 DUP3 AND DUP1 PUSH2 0xBBE JUMPI PUSH1 0x7F DUP3 AND SWAP2 POP JUMPDEST PUSH1 0x20 DUP3 LT DUP2 EQ ISZERO PUSH2 0xBD2 JUMPI PUSH2 0xBD1 PUSH2 0xCB0 JUMP JUMPDEST JUMPDEST POP SWAP2 SWAP1 POP JUMP JUMPDEST PUSH2 0xBE1 DUP3 PUSH2 0xD22 JUMP JUMPDEST DUP2 ADD DUP2 DUP2 LT PUSH8 0xFFFFFFFFFFFFFFFF DUP3 GT OR ISZERO PUSH2 0xC00 JUMPI PUSH2 0xBFF PUSH2 0xCDF JUMP JUMPDEST JUMPDEST DUP1 PUSH1 0x40 MSTORE POP POP POP JUMP JUMPDEST PUSH1 0x0 PUSH2 0xC14 DUP3 PUSH2 0xB5A JUMP JUMPDEST SWAP2 POP PUSH32 0xFFFFFFFFFFFFFFFFFFFFFFFFFFFFFFFFFFFFFFFFFFFFFFFFFFFFFFFFFFFFFFFF DUP3 EQ ISZERO PUSH2 0xC47 JUMPI PUSH2 0xC46 PUSH2 0xC52 JUMP JUMPDEST JUMPDEST PUSH1 0x1 DUP3 ADD SWAP1 POP SWAP2 SWAP1 POP JUMP JUMPDEST PUSH32 0x4E487B7100000000000000000000000000000000000000000000000000000000 PUSH1 0x0 MSTORE PUSH1 0x11 PUSH1 0x4 MSTORE PUSH1 0x24 PUSH1 0x0 REVERT JUMPDEST PUSH32 0x4E487B7100000000000000000000000000000000000000000000000000000000 PUSH1 0x0 MSTORE PUSH1 0x12 PUSH1 0x4 MSTORE PUSH1 0x24 PUSH1 0x0 REVERT JUMPDEST PUSH32 0x4E487B7100000000000000000000000000000000000000000000000000000000 PUSH1 0x0 MSTORE PUSH1 0x22 PUSH1 0x4 MSTORE PUSH1 0x24 PUSH1 0x0 REVERT JUMPDEST PUSH32 0x4E487B7100000000000000000000000000000000000000000000000000000000 PUSH1 0x0 MSTORE PUSH1 0x41 PUSH1 0x4 MSTORE PUSH1 0x24 PUSH1 0x0 REVERT JUMPDEST PUSH1 0x0 DUP1 REVERT JUMPDEST PUSH1 0x0 DUP1 REVERT JUMPDEST PUSH1 0x0 DUP1 REVERT JUMPDEST PUSH1 0x0 DUP1 REVERT JUMPDEST PUSH1 0x0 PUSH1 0x1F NOT PUSH1 0x1F DUP4 ADD AND SWAP1 POP SWAP2 SWAP1 POP JUMP JUMPDEST PUSH2 0xD3C DUP2 PUSH2 0xB0A JUMP JUMPDEST DUP2 EQ PUSH2 0xD47 JUMPI PUSH1 0x0 DUP1 REVERT JUMPDEST POP JUMP JUMPDEST PUSH2 0xD53 DUP2 PUSH2 0xB1C JUMP JUMPDEST DUP2 EQ PUSH2 0xD5E JUMPI PUSH1 0x0 DUP1 REVERT JUMPDEST POP JUMP JUMPDEST PUSH2 0xD6A DUP2 PUSH2 0xB5A JUMP JUMPDEST DUP2 EQ PUSH2 0xD75 JUMPI PUSH1 0x0 DUP1 REVERT JUMPDEST POP JUMP INVALID LOG2 PUSH5 0x6970667358 0x22 SLT KECCAK256 0xB8 JUMPDEST 0xC DUP5 0xBD STATICCALL CALLDATASIZE MULMOD PUSH21 0xD35EFC1ABF91AEE975542EC4207E4BCCD56EF9E416 0xF7 PUSH21 0x64736F6C6343000807003300000000000000000000 "
				},
				"gasEstimates": {
					"creation": {
						"codeDepositCost": "700400",
						"executionCost": "infinite",
						"totalCost": "infinite"
					},
					"external": {
						"approveRequest(uint256)": "infinite",
						"approvers(address)": "2868",
						"contribute()": "51002",
						"createRequest(string,uint256,address)": "infinite",
						"finalizeRequest(uint256)": "infinite",
						"manager()": "2556",
						"minimumContribution()": "2451",
						"requests(uint256)": "infinite"
					}
				},
				"methodIdentifiers": {
					"approveRequest(uint256)": "d7d1bbdb",
					"approvers(address)": "0a144391",
					"contribute()": "d7bb99ba",
					"createRequest(string,uint256,address)": "8a9cfd55",
					"finalizeRequest(uint256)": "03441006",
					"manager()": "481c6a75",
					"minimumContribution()": "937e09b1",
					"requests(uint256)": "81d12c58"
				}
			},
			"storageLayout": {
				"storage": [
					{
						"astId": 41,
						"contract": "campaign/campaign.sol:Campaign",
						"label": "manager",
						"offset": 0,
						"slot": "0",
						"type": "t_address"
					},
					{
						"astId": 60,
						"contract": "campaign/campaign.sol:Campaign",
						"label": "approvers",
						"offset": 0,
						"slot": "1",
						"type": "t_mapping(t_address,t_bool)"
					},
					{
						"astId": 62,
						"contract": "campaign/campaign.sol:Campaign",
						"label": "approversCount",
						"offset": 0,
						"slot": "2",
						"type": "t_uint256"
					},
					{
						"astId": 64,
						"contract": "campaign/campaign.sol:Campaign",
						"label": "minimumContribution",
						"offset": 0,
						"slot": "3",
						"type": "t_uint256"
					},
					{
						"astId": 66,
						"contract": "campaign/campaign.sol:Campaign",
						"label": "numRequests",
						"offset": 0,
						"slot": "4",
						"type": "t_uint256"
					},
					{
						"astId": 71,
						"contract": "campaign/campaign.sol:Campaign",
						"label": "requests",
						"offset": 0,
						"slot": "5",
						"type": "t_mapping(t_uint256,t_struct(Request)56_storage)"
					}
				],
				"types": {
					"t_address": {
						"encoding": "inplace",
						"label": "address",
						"numberOfBytes": "20"
					},
					"t_address_payable": {
						"encoding": "inplace",
						"label": "address payable",
						"numberOfBytes": "20"
					},
					"t_bool": {
						"encoding": "inplace",
						"label": "bool",
						"numberOfBytes": "1"
					},
					"t_mapping(t_address,t_bool)": {
						"encoding": "mapping",
						"key": "t_address",
						"label": "mapping(address => bool)",
						"numberOfBytes": "32",
						"value": "t_bool"
					},
					"t_mapping(t_uint256,t_struct(Request)56_storage)": {
						"encoding": "mapping",
						"key": "t_uint256",
						"label": "mapping(uint256 => struct Campaign.Request)",
						"numberOfBytes": "32",
						"value": "t_struct(Request)56_storage"
					},
					"t_string_storage": {
						"encoding": "bytes",
						"label": "string",
						"numberOfBytes": "32"
					},
					"t_struct(Request)56_storage": {
						"encoding": "inplace",
						"label": "struct Campaign.Request",
						"members": [
							{
								"astId": 43,
								"contract": "campaign/campaign.sol:Campaign",
								"label": "description",
								"offset": 0,
								"slot": "0",
								"type": "t_string_storage"
							},
							{
								"astId": 45,
								"contract": "campaign/campaign.sol:Campaign",
								"label": "value",
								"offset": 0,
								"slot": "1",
								"type": "t_uint256"
							},
							{
								"astId": 47,
								"contract": "campaign/campaign.sol:Campaign",
								"label": "recipient",
								"offset": 0,
								"slot": "2",
								"type": "t_address_payable"
							},
							{
								"astId": 49,
								"contract": "campaign/campaign.sol:Campaign",
								"label": "complete",
								"offset": 20,
								"slot": "2",
								"type": "t_bool"
							},
							{
								"astId": 51,
								"contract": "campaign/campaign.sol:Campaign",
								"label": "approvalsCount",
								"offset": 0,
								"slot": "3",
								"type": "t_uint256"
							},
							{
								"astId": 55,
								"contract": "campaign/campaign.sol:Campaign",
								"label": "approvals",
								"offset": 0,
								"slot": "4",
								"type": "t_mapping(t_address,t_bool)"
							}
						],
						"numberOfBytes": "160"
					},
					"t_uint256": {
						"encoding": "inplace",
						"label": "uint256",
						"numberOfBytes": "32"
					}
				}
			},
			"userdoc": {
				"kind": "user",
				"methods": {},
				"version": 1
			}
		}
	}
}